:020000040800F2
:10000000080C0020ED010008F5010008F7010008C8
:10001000F9010008FB010008FD01000800000000D4
:10002000000000000000000000000000BD0100080A
:1000300001020008000000001D10000899140008CB
:10004000070200080702000807020008070200086C
:10005000070200080702000807020008070200085C
:10006000070200080702000807020008070200084C
:10007000070200080702000807020008070200083C
:10008000070200080702000807020008000000003D
:10009000000000000000000000000000070200084F
:1000A000070200080702000807020008070200080C
:1000B0000702000807020008F515000807020008FB
:1000C00007020008070200080702000807020008EC
:1000D00007020008151600080702000807020008BA
:1000E00007020008070200080702000800000000DD
:1000F0000000000000000000000000000000000000
:1001000000000000000000000000000000000000EF
:1001100000000000000000000702000807020008BD
:1001200000F002F800F03AF80AA090E8000C8244CF
:100130008344AAF10107DA4501D100F02FF8AFF2AC
:10014000090EBAE80F0013F0010F18BFFB1A43F0B5
:10015000010318474836000068360000103A24BFF3
:1001600078C878C1FAD8520724BF30C830C144BF1C
:1001700004680C607047000000230024002500265E
:10018000103A28BF78C1FBD8520728BF30C148BFFA
:100190000B6070471FB51FBD10B510BD00F0D2F841
:1001A0001146FFF7F7FF02F01BFA00F0F0F803B476
:1001B000FFF7F2FF03BC00F0F1F800001EF0040F9F
:1001C0000CBFEFF30880EFF3098090E80F1000B543
:1001D000E0475DF804EB1EF0020F0CBFEFF3088C54
:1001E000EFF3098C8CE80F00704700000948804746
:1001F00009480047FEE7FEE7FEE7FEE7FEE7FEE709
:10020000FEE7FEE7FEE7FEE704480549034A054B23
:1002100070470000C11400082101000808040020F4
:10022000080C002008040020032A40F2308010F05F
:10023000030C00F0158011F8013BBCF1020F624481
:1002400098BF11F801CB00F8013B38BF11F8013B12
:10025000A2F1040298BF00F801CB38BF00F8013BBF
:1002600011F0030300F03380083AC0F0088051F821
:10027000043B083A51F804CBA0E80810F5E7121D3A
:100280005CBF51F8043B40F8043BAFF30080D20759
:1002900024BF11F8013B11F801CB48BF11F8012B25
:1002A00024BF00F8013B00F801CB48BF00F8012B48
:1002B000704770477047704710B500F03BF8006812
:1002C00010BD10B5044600F035F8046010BD10B53F
:1002D000203AC0F00B80B1E81850203AA0E818503E
:1002E000B1E81850A0E81850BFF4F5AF5FEA027CFF
:1002F00024BFB1E81850A0E8185044BF18C918C06E
:10030000BDE810405FEA827C24BF51F8043B40F80E
:10031000043B08BF7047D20728BF31F8023B48BFF3
:1003200011F8012B28BF20F8023B48BF00F8012B31
:100330007047000000487047A8030020004870473D
:10034000A80300207546FFF7F9FFAE460500694691
:10035000534620F00700854618B020B5FFF754FF3C
:10036000BDE820404FF000064FF000074FF00008B6
:100370004FF0000B21F00701AC46ACE8C009ACE837
:10038000C009ACE8C009ACE8C0098D467047044616
:10039000AFF300802046FFF70AFF00000149182054
:1003A000ABBEFEE72600020070470000294910B5E9
:1003B00008684FF6FF021040274A40F4E0601043FF
:1003C0000860FF216FF0010000F026FD00F08CFEB8
:1003D00023482249826942F40062826182140A81C0
:1003E0000A8942F480420A810A8842F001020A80A6
:1003F000816941F0040181611A490A6822F470227E
:1004000042F480220A60C269810442F00102C261A2
:1004100000220A800A8544F61F628A8501228A82A8
:100420000A8060230B830A84816941F004018161A1
:100430000C48001F016821F00F0141F00B01016021
:1004400001F0A2F801F066F801F0EEFABDE8104004
:1004500000F08EBC0CED00E00000FA05002C01401D
:10046000001002400408014070B50D46094901EB37
:1004700040014C5D00F0A6FE2946204601F0A4F99B
:100480000546062000F09EFEAC4201D1012070BD61
:10049000002070BD223600080146014800F050B827
:1004A0002C3600080146014800F04AB838360008EA
:1004B0000146014800F044B84436000801460148AE
:1004C00000F03EB8503600082DE9F0410F46050017
:1004D00025D028688047002822D0A96801208847B5
:1004E00000281DD068688047002819D0CC212846F4
:1004F00000F050FDBE21284600F04CFD0026DFF83C
:100500003C803446FF21284600F044FD38557040B9
:10051000641C18F80060E4B2092CF3D316B1002073
:10052000BDE8F08168688047CC21284600F032FDA4
:100530004421284600F02EFD0120F1E75C3600083A
:100540003EB50C466946FFF7BFFF002807D09DF86F
:1005500000009DF8011000EB0120208001203EBD2D
:1005600070B50C46064615460021A02001F0FEFAA3
:1005700060B1300A01F0C8FA40B1F0B201F0C4FA3B
:1005800020B10121A02001F0F1FA40B901F028FBCF
:10059000002070BD002001F081FA04F8010B6D1EEF
:1005A0002D042D0CF6D1012001F078FA207001F015
:1005B00017FB012070BD000070B50C4606461546BD
:1005C0000021A02001F0D2FAA8B1300A01F09CFA73
:1005D00088B1F0B201F098FA68B100BF14F8010BCD
:1005E00001F092FA38B16D1E2D042D0CF6D101F0F8
:1005F000F7FA012070BD01F0F3FA002070BD000091
:100600000A498A6942F004028A6108B1022001E0C5
:100610004FF400300649086005481038016821F0A1
:10062000F00141F03001016070470000001002400D
:10063000100801400A498A6942F004028A6108B13F
:10064000042001E04FF48020064908600548103876
:10065000016821F4706141F440710160704700004D
:100660000010024010080140F0B51548DFF854C0F2
:10067000002601784FF6FF7735463CF811303A46B0
:100680000624491CC9B21846072900D300213CF8AA
:100690001130181A80B2A84200D90546904200D203
:1006A00002463044641E86B214F0FF04E9D1701B88
:1006B000801AC0F38D00C0EB001007EA4000F0BDC7
:1006C000E8000020480300202DE9F0411F48017890
:1006D000002938D00026067000F004FA1C4D0120D5
:1006E0001C4C297801292BD0022926D04FF07E57A7
:1006F000032905D06670A670BDE8F04100F0F2B99C
:100700003946686802F0C6FAA96802F045FC05D2CD
:10071000607818B1BDE8F04100F086B839466868E5
:1007200002F06CFDA96802F037FD0CD2A078002819
:1007300009D0BDE8F04100F003B96070A670E9E7A8
:10074000A0706670F5E7BDE8F0810000C8000020E9
:1007500038030020E80000200149088770470000A6
:10076000004001400A498A6942F004028A6108B1E6
:10077000082001E04FF400200649086005481038C1
:10078000016821F4704141F440510160704700005C
:1007900000100240100801400C4802880D490C4B23
:1007A000087823F81020401CC0B20870072801D335
:1007B0000020087008480188491E0904090C0180BE
:1007C00002D10020FFF7CEBF70470000242C01406B
:1007D00048030020E8000020260100200149888607
:1007E00070470000004001400C4810B500881E28EA
:1007F00002D3002000F014F901F008FE0849094C6A
:100800008860608902F0B4FB6FF0030102F0CBFD59
:10081000217BBDE8104001F037BF0000220100201D
:1008200038030020980200202DE9F047DFF8F0801F
:10083000DFF8F090FFF7D8FF3B4D3C4CD5E90101C4
:10084000E268A26002F0DAFCE0606078002861D023
:10085000FFF7CAFFD5E90101E768A76002F0CEFC07
:1008600006464146E06002F0CBFB804620616FF017
:100870000A01304602F097FD616902F00BFA4FF071
:100880003F416061884203D84FF07C51884200DDCF
:1008900061613946304602F0B1FC494602F0B0FBD6
:1008A000234902F0ADFB06462249A06902F0A8FBED
:1008B000314602F0EFF9A06106464046616902F058
:1008C000E9F9314602F0E6F90026E061B0F5000FE3
:1008D00001DBE6610DE01849884201D9E16102E0DF
:1008E00010F1FF4F05D315493C2008800120FFF788
:1008F00039FFFFF7B9FE642801D2002000E0E0696B
:1009000000F08EF82878012803D0022804D00328AC
:1009100000D06670BDE8F08701206070FAE7000043
:100920000000F03D0000164138030020E8000020E0
:10093000CDCC4C3ECDCC4C3F000080BF26010020EA
:100940002DE9F047314C2F4FDFF8BC90A0780028FC
:1009500053D0FFF749FF2E4DD5E90101626A2262AB
:10096000904602F04BFC06463946606202F048FBB6
:100970000746A0626FF00B01304602F014FDE16AF9
:1009800002F088F92349E062884203D84FF07A5197
:10099000884200DDE1624146304602F02FFC4946C4
:1009A00002F02EFB1C4902F02BFB06461B49206B74
:1009B00002F026FB314602F06DF920630646384608
:1009C000E16A02F067F9314602F064F900266063DB
:1009D00010F1FF4F01D3666304E04FF07E5188426F
:1009E00000DD6163606B00F01BF82878012806D0F9
:1009F000022801D0032800D0A670BDE8F0870120AE
:100A0000A070FAE70000203D00004840E800002008
:100A100038030020000080BECDCC4C3ECDCC4C3FF6
:100A20002DE9F0412A4D0446294602F0E9FA29460B
:100A300002F030F902F064FA2649274D274E8881EA
:100A40004FF47A7714F1FF4F1BD32549204602F06B
:100A5000D7FA02F055FA80B202F08AFA0446002072
:100A6000FFF7BCFEAC4201DD384607E0B44201DAD4
:100A7000002003E0204602F043FA80B2FFF76CFE4C
:100A80001DE0B4F5000F1EDB204602F039FA80B2FB
:100A90004FF47A71484302F06BFA04460020FFF7E6
:100AA0005BFEAC4201DD384607E0B44201DA0020CB
:100AB00003E0204602F024FA80B2FFF78FFEBDE883
:100AC000F041FFF769BE0020FFF788FED0E7000085
:100AD00000007A4438030020008077440000204161
:100AE00000007AC42DE9F0412D4F387850B92D4CD3
:100AF000608902F03DFA6FF0030102F054FC217BA3
:100B000001F0C2FD0020FFF78BFFFFF76DFE387884
:100B100003283ED1244CA0780126002558B96078DE
:100B200048B9D7E9011002F037FB02D2A570667010
:100B300001E0A6706570D7E9011002F05FFB4FF08D
:100B40008042904204DBA17811B1A188491CA180A8
:100B5000904200DAA5804FF04042904204D3617881
:100B600011B1E188491CE180904200D2E580A08863
:100B70003C2804D3E580A580A57066700BE0A078C2
:100B800000B9A580E0883C2805D3E580A580A67043
:100B90006570BDE8F08160780028FAD1E580F8E75B
:100BA0003803002098020020E800002038B568468D
:100BB000FFF778FC154D164C0021B8B1A180154AFD
:100BC000BDF900002882B2F91020A2F1F003B3F5BC
:100BD000207F11D8104B5B7813F0010F0CD090429E
:100BE00001DA012000E00020607006E0A0881E28E5
:100BF00002D2401CA08000E06170607800F00EF826
:100C0000607808B14FF47A70688238BD48020020DD
:100C10002001002098020020C300002009498A69B1
:100C200042F010028A6110B14FF4005101E04FF020
:100C3000005105480161416821F4700141F44011FF
:100C400041607047001002400010014070B5214D16
:100C50000024204600F0B6FAFF2000F015FFFF2028
:100C600000F012FFFF2000F00FFFFF2000F00CFF4C
:100C7000FF2000F009FFFF2000F006FFFF2000F03A
:100C800003FF05EB4400012140784030C0B200F082
:100C90009BFD062000F096FA641CE4B2052CD8D324
:100CA000DC2000F0B1FF0024204600F08BFA15F89C
:100CB000140000214030C0B200F086FD062000F094
:100CC00081FA641CE4B2052CEED3BDE87040DC2050
:100CD00000F09ABF223600087CB500246D46002142
:100CE0002046FFF7C1FB2855641CE4B2052CF6D35F
:100CF0000020134901232A5C5AB100EB80020F3215
:100D000001EBD20602F00702347803FA02F2144330
:100D10003470401CC0B20528EDD3487802060DD5CA
:100D20008A78D2060AD4CA78930707D4520605D423
:100D30000A79120702D440F0040048707CBD00001C
:100D4000BE0000207047000001490020C8607047C5
:100D5000C800002008B50221009101464FF4165347
:100D60000122002001F060F9BDE8084000F072BFE8
:100D700070B50B4800250A21C5604068B0FBF1F052
:100D8000401EB0F1807F09D24FF0E02460610F2156
:100D9000601700F041F8A5610720206170BD0000D8
:100DA000C80000200348C068322801D301207047E2
:100DB00000207047C800002044F6206148434FF4EB
:100DC000D841B0FBF1F04FF08041888670470000B9
:100DD00009498A6942F010028A6110B14FF48041DA
:100DE00001E04FF0804105480161416821F07061E8
:100DF00041F0407141607047001002400010014016
:100E000000F01F020121914040094FF0E02202EB67
:100E10008000C0F8001170470907090E002803DAA6
:100E200000F00F00024A00E0024A815470470000BF
:100E300014ED00E000E400E00C4800B5816941F0E9
:100E4000080181610A48016821F4700141F4E00160
:100E50000160084A01201060052000F0E3FE52F80E
:100E6000800C002800D0012000BD000000100240CE
:100E7000040C0140B4812142DFF804C000DF704758
:100E800029180008DFF804C000DF70476518000863
:100E90000B4800B5816941F004018161094801688E
:100EA00021F00F01C91D0160074A012010600520D3
:100EB00000F0B8FE52F8800C002800D0012000BDE0
:100EC0000010024004080140A0012142DFF804C0E4
:100ED00000DF7047A9180008DFF804C000DF704782
:100EE000E51800080C4800B5816941F004018161F2
:100EF0000A48016821F4704141F4E0410160084A68
:100F000001201060052000F08DFE52F8800C0028B2
:100F100000D0012000BD0000001002400408014084
:100F2000AC012142DFF804C000DF70472919000836
:100F3000DFF804C000DF7047651900080C4800B5F1
:100F4000816941F0040181610A48016821F0704122
:100F500041F0E0410160084A01201060052000F0E6
:100F600061FE52F8800C002800D0012000BD000076
:100F70000010024004080140BC012142DFF804C017
:100F800000DF7047A9190008DFF804C000DF7047D0
:100F9000E51900082DE9F04108250C460646802792
:100FA000B16804F00100884710B147EA540400E03A
:100FB00064086D1EF4D12046BDE8F0814FF47A71CB
:100FC00048434FF4D841B0FBF1F001490880704725
:100FD0003C0400404FF47A7148434FF4D841B0FBD1
:100FE000F1F0014908807047400400404FF47A71E5
:100FF00048434FF4D841B0FBF1F0014908807047F5
:10100000340400404FF47A7148434FF4D841B0FBA8
:10101000F1F00149088070473804004001F044B8FD
:1010200009498A6942F010028A6110B14FF4004107
:1010300001E04FF0004105480161416821F0704135
:1010400041F04051416070470010024000100140E3
:101050002DE9F04700270C468146142501F10806CA
:10106000484600F0AFF8F0B200F00EFDFF2000F0AF
:101070000BFD8046062000F0A5F85FEA086014D456
:10108000484600F09FF83834E0B200F0FDFCFF2045
:1010900000F0FAFC0446FF2000F0F6FC00EB042010
:1010A00087B2062000F08EF806E00A2000F0ACFDC2
:1010B0006D1E15F0FF05D3D13846BDE8F08700005E
:1010C00010B50022074B114603EBC10434F8104061
:1010D000491C224489B292B20A29F5D30A20B2FBF4
:1010E000F0F010BDE80200202E4800B5416941F043
:1010F000010141612C4900238B6043F2A0528A60B8
:101100002A4A0A612A4A4A612822CA608A6842F049
:1011100001028A60816941F00401816125490A6800
:1011200022F47F020A60816941F4007181614168A3
:1011300021F4404141F4004141601C498015483987
:1011400008600A1D1C48106018491C483C3908609A
:10115000091F4FF410000860144919481839086035
:10116000081F036011494FF4401020390860012026
:1011700000F058FD106840F001001060106840F069
:101180000800106010680007FCD4106840F00400EC
:10119000106010684007FCD4106840F4A000106094
:1011A00000BD000000100240000002404C2401403D
:1011B000E8020020000801400301800007F003005E
:1011C0001192020011498A6942F008028A611049AD
:1011D0000A68104B6FF313021A430A600C490C3172
:1011E00005280FD2DFE800F0030507090B000A48C5
:1011F00006E00A4804E00A4802E00A4800E00A481B
:10120000086070474FF4F850FAE700000010024001
:10121000040C014033330300001E000100170008D6
:10122000000F0010001D0002001B00040CB500217F
:101230001F4801910091026842F4803202604FF42D
:10124000A063026802F400320092019A521C0192DB
:10125000009A12B9019A9A42F3D10268920324D5F6
:1012600001210091416841604168416041684160ED
:10127000416821F47C114160416841F4981141605A
:10128000016841F08071016001688901FCD5416805
:1012900021F003014160416841F002014160416871
:1012A000C1F381010229FAD10CBD00910CBD0000EF
:1012B000001002402DE9F041FFF774FD0546FFF7ED
:1012C00003FA3E4C6078A17800F0800001F0100134
:1012D0000843E17801F00202104301F040010843A5
:1012E000217901F00801084300D00120FFF798FEA2
:1012F0006078334EC0F38000A84370784FEA4070A6
:1013000003D0002806DA012002E0002802DA0020DB
:10131000FFF786FE60782B4F4FEAD010A8430CD021
:101320007078000609D50120FFF784F90120FFF746
:101330004FFDF88BFFF740FD08E00020FFF73CFD74
:101340000020FFF745FD0020FFF774F9A078C0F3F7
:101350000010A84304D0B078C00601D5388D00E055
:101360000020FFF72BFEE078C0F34000A84304D034
:10137000F078800701D5788E00E00020FFF72AFE84
:10138000E078C0F38010A84304D0F078400601D57F
:10139000B88F00E00020FFF729FE2079C0F3C000DD
:1013A000A84305D03079000702D5B7F8460000E021
:1013B0000020BDE8F041FFF725BE0000C30000207B
:1013C000BE000020980200207CB56846FFF764F854
:1013D000194C10B1BDF80000A0806846FFF768F80E
:1013E00040B1BDF800006084A085E086A4F840000C
:1013F000A4F84A00114D2878800615D501A8FFF7FA
:101400005DF80F4928B100204880BDF804006081D4
:1014100004E048881E2801D2401C488000F0F0FFFC
:10142000A08100F0EBFFE0816878C00701D0FFF7F2
:10143000BDFBFFF749F97CBD48020020BE0000203B
:101440002001002010B500F0F9FF042101F0ABFFEE
:1014500001F0F4FB01F016F901F002FB0A49C88023
:10146000FFF732F900F0E2FF084A0949904201DD36
:1014700001220A70074A904201DA002008700878B9
:10148000BDE81040FFF7BCB848020020000022422F
:101490002001002000001E420848C168491C00D0FD
:1014A000C16081680A22B1FBF2F302FB1312491CEE
:1014B0008160002A01D1012101707047C80000201D
:1014C000104810B5016841F00101016041680E4A01
:1014D0001140416001680D4A11400160016821F42A
:1014E00080210160416821F4FE0141604FF41F0139
:1014F00081600021C162FFF799FE05494FF000604D
:10150000086010BD001002400000FFF8FFFFF6FE6B
:1015100008ED00E0194918488A6942F480328A616E
:101520000022028045F6BF52028540F2E7328285F2
:1015300001228282028046F260020283112202842A
:101540008A6942F001028A610D4AD36943F00103BE
:10155000D3618A6942F008028A610A490A6822F066
:101560007F4242F03B420A60B0F8441041F400412F
:10157000A0F84410704700000040014000100240F5
:1015800000000140040C014017491648CA6942F0A6
:101590000202CA6100220280028540F2E73282859F
:1015A00001228282028046F260020283828343F239
:1015B00033320284886940F0040088610B48026875
:1015C00022F07F4242F03B420260886940F008000E
:1015D00088610748016821F0FF0141F0BB0101600B
:1015E0007047000000040040001002400008014065
:1015F000000C014005480188C90706D0018821F088
:10160000010101800248006800477047100800404F
:101610002800002070B5114C2088114D800605D59A
:101620002888800602D50F48006880472088000679
:1016300005D52888000602D50B4800688047208819
:1016400040060AD52888400607D5208820F04000AB
:101650002080BDE87040FFF775BB70BD0C380140BD
:10166000003801402000002024000020F0B587B0A1
:101670000024274605AE6D46E0B20021FEF7F4FED9
:10168000305545F82470641CA4B2052CF4D3FFF740
:101690009BFE0027FFF70EFE0024305D40B1E0B254
:1016A0000021FFF7D5FC55F82410084445F8240024
:1016B000641CA4B2052CF0D37F1CBFB2042FE9D365
:1016C000094A0020315C41B155F8201000EB80033D
:1016D000B1FBF7F102EB4303D983401C80B205282C
:1016E000F0D307B0F0BD0000480200202DE9FC4116
:1016F00000246F46E0B20121FEF7B6FE3855641CA7
:10170000A4B2052CF6D3FFF79DFE0026FFF7D2FD0D
:101710000025785DD8B11348012100EB05146068FD
:101720002060A0686060E068A060E8B2FFF790FC0D
:10173000E060D4E900121144A268104408440A4A47
:1017400005EB850102EB4101C0F38F0008846D1C9D
:10175000ADB2052DDDD3761CB6B2022ED6D3BDE8D0
:10176000FC810000580300204802002070B50446A8
:10177000642801D80F4870BDB4F57A6F01D30E48C4
:1017800070BD01F0F5FB0546C4F5805001F0F0FB9B
:10179000294601F0F3FA00F059FE084901F07AFAFF
:1017A0000146074801F0EAFABDE87040054901F03A
:1017B00025BD0000000048C2000034439D62354151
:1017C000004053453393884370B5054601F110003E
:1017D0000C46C0B200F058F9284600F055F904F163
:1017E0002000C0B200F050F90C2000F04DF904F1D7
:1017F0004000C0B200F048F9002000F045F904F1C3
:101800003800C0B200F040F9FF2000F03DF9FF20A1
:1018100000F03AF91834E0B200F036F9BDE8704053
:10182000FF2000F031B9000000B5012000F0FAF906
:101830000B4A002010604FF4F07000F0F3F9012023
:101840001060462000F0EEF952F8800C30B1002212
:101850004FF4CD7000F0E6F9104600BD0122F7E725
:10186000B48121420F4A00B503460020C2F8B401FA
:10187000062000F0D7F9C2F8B431092000F0D2F9FF
:10188000D2F8340108B1012300E000232D2000F03C
:10189000C9F90120C2F8B4010A2000F0C3F91846C2
:1018A00000BD00000080214200B5012000F0BAF91F
:1018B0000B4A002010604FF4F07000F0B3F90120E3
:1018C0001060462000F0AEF952F8800C30B10022D2
:1018D0004FF4CD7000F0A6F9104600BD0122F7E7E5
:1018E000A00121420F4A00B503460020C2F8A00122
:1018F000062000F097F9C2F8A031092000F092F913
:10190000D2F8200108B1012300E000232D2000F0CF
:1019100089F90120C2F8A0010A2000F083F91846D5
:1019200000BD00000000214200B5012000F07AF95E
:101930000B4A002010604FF4F07000F073F90120A2
:101940001060462000F06EF952F8800C30B1002291
:101950004FF4CD7000F066F9104600BD0122F7E7A4
:10196000AC0121420F4A00B503460020C2F8AC0189
:10197000062000F057F9C2F8AC31092000F052F906
:10198000D2F82C0108B1012300E000232D2000F043
:1019900049F90120C2F8AC010A2000F043F91846C9
:1019A00000BD00000000214200B5012000F03AF91E
:1019B0000B4A002010604FF4F07000F033F9012062
:1019C0001060462000F02EF952F8800C30B1002251
:1019D0004FF4CD7000F026F9104600BD0122F7E764
:1019E000BC0121420F4A00B503460020C2F8BC01E9
:1019F000062000F017F9C2F8BC31092000F012F9F6
:101A0000D2F83C0108B1012300E000232D2000F0B2
:101A100009F90120C2F8BC010A2000F003F91846B8
:101A200000BD0000000021421148816941F00C0115
:101A30008161816941F20102114381610D48416870
:101A400021F0E06141F000714160416841F0010125
:101A5000416009490868094A1040094A1043086072
:101A6000084840F27F3101800021818070470000EA
:101A70000010024000000140000C0140FF0F00FF79
:101A800000B0B40000300140034988810889C007D4
:101A9000FCD08889C0B2704700300140F0B5194AC7
:101AA000002401250746C2F89C5108232646012040
:101AB00000F0B8F8C2F89851012000F0B3F86006C1
:101AC000D2F81C11000E11B140F0010401E000F049
:101AD000FE04C2F898615B1E13F0FF03E7D16FB1FB
:101AE000C2F89C51012000F09DF8C2F898510120E5
:101AF00000F098F8C2F898612046F0BDC2F89C61E9
:101B0000F0E700000080214270B508240025164A45
:101B100006460123300602D5C2F89C3101E0C2F826
:101B20009C517006060E012000F07CF8C2F8983136
:101B3000012000F077F8C2F89851641E14F0FF04F9
:101B4000E8D1C2F89C31012000F06CF8C2F898315D
:101B5000012000F067F8D2F81C01C2F8985108B1D2
:101B6000002070BD012070BD0080214230B50346C9
:101B700018480C46816941F00801816116480168E6
:101B800021F07F4141F0EE410160144A0120C2F88A
:101B90009C01C2F898010A2000F044F8D2F81C0118
:101BA000002815D0D2F81801002811D00025C2F85D
:101BB0009C51012000F036F8C2F898512CB143F046
:101BC0000100BDE83040FFF79FBF03F0FE00F8E7DB
:101BD00030BD000000100240000C01400080214296
:101BE000084A00B500205060012000F01BF80123D6
:101BF0001360184600F016F8536001205DF804EBFE
:101C000000F010B89881214200B5024640F2E73357
:101C100002E0184600F006F81000A2F1010292B2AC
:101C2000F7D100BD13E000BF00BF00BF00BF00BF81
:101C300000BF00BF00BF00BF00BF00BF00BF00BFAC
:101C400000BF00BF00BF00BF00BF00BF00BF401EFD
:101C5000E9D2704770B5064D00242878012802D0DB
:101C60000624204670BD2869804700202870F8E7C8
:101C70000000002070B50C460988002505292FD1E9
:101C8000417840F2CF760A0281781143C278491C2C
:101C90001302027989B21A43531EB34220D20023A1
:101CA0002380012300F8013B2688761C26805607F6
:101CB00003D003EBD203DEB201E0C2F3C70600F8A3
:101CC000016B23885B1C2380002300F0C7FA18B146
:101CD00000F0CCFC054604E020883044208000E081
:101CE0000325284670BD70B50C46098800250529D6
:101CF0002FD1417840F2CF760A0281781143C27821
:101D0000491C1302027989B21A43531EB34220D2EE
:101D100000232380022300F8013B23885B1C2380DF
:101D2000530704D0012303EBD203DEB201E0C2F378
:101D3000C70600F8016B23885B1C238000F0C8FAFB
:101D400018B100F093FC054604E020883044208060
:101D500000E00325284670BD70B50C4609880026B2
:101D6000052924D1417805790A0281781143491C5B
:101D70006A1E89B27C2A1AD80022228003220270AD
:101D800022880023521C22806A0042702288801C14
:101D9000521C22802A4600F0C1FA18B100F066FCFD
:101DA000064605E0208800EB4500208000E0032681
:101DB000304670BD70B50C4609880026052926D12D
:101DC000417805790A0281781143C278491C45EAB5
:101DD00002256A1E89B27C2A19D20022228004229E
:101DE00002702288521C22806A0042702288801C65
:101DF000521C22802A4600F0E3FA18B100F036FCAB
:101E0000064605E0208800EB4500208000E0032620
:101E1000304670BD2DE9F0410446088800270D4684
:101E20000A2841D3607826790102A078227A0843F3
:101E3000401C1FFA80F8E07846EA00266079731E9D
:101E40000102A0790843401C81B2E0797C2B42EA70
:101E50000022607A27D832B3792A24D8B0EB420F17
:101E600021D1012304F10A0000F058FA90B90021B1
:101E70002980172121702988A01C491C2980710004
:101E8000617029880023491C29803246414600F0B0
:101E900045FA18B100F0EAFB074605E0288800EB98
:101EA0004600288000E003273846BDE8F0810000A6
:101EB00070B50C4600212180112101702188094D47
:101EC000491C21802A8842702188801C491C21805D
:101ED0000549FEF7A9F920882988084420800020B8
:101EE00070BD0000AC0000202801002038B5098832
:101EF000002405290BD141780A0281781143491C3D
:101F0000027989B21AB9C278FF2A03D012B1032428
:101F1000204638BD00228DF80120C078FF280CD063
:101F20008DF8002001231A46684600F097F9002832
:101F3000EED000F09BFB0446EAE701208DF800009C
:101F4000F0E710B509880024052902D003242046B3
:101F500010BD417801230A028178C01C1143491C3D
:101F600089B21A4600F0DAF90028F0D000F07EFBC2
:101F70000446ECE72DE9F0410D46098800240529C7
:101F800026D9417843790A0281781143491C8EB2DF
:101F9000C178027942EA0122510704D0012101EB04
:101FA000D201C9B201E0C2F3C701571EB7F5F66FFF
:101FB0000ED299420CD101233146801D00F04EF91A
:101FC00018B100F053FB044603E00520288000E030
:101FD00003242046BDE8F08170B50D460988002431
:101FE00006291DD341780A0281781143C278491C21
:101FF0001302027989B21A434379561E772E0FD8FD
:102000005606360E9E420BD10123801D00F086F944
:1020100018B100F02BFB044603E00520288000E007
:102020000324204670BD00002DE9F0411D46069BAB
:102030001746064629B1F72903D8134C08462171E3
:102040000EB102251BE0114921611149616111495D
:10205000E1601149A1610021E1611049216210494B
:1020600061621049A1622A46394600F075F8050000
:1020700005D100F083FB28B166710120207028464D
:10208000BDE8F0810325FAE7000000202D220008BA
:1020900049220008D521000891210008C92800081C
:1020A000512900082929000838B52A4C207808B1A0
:1020B000062038BD684600F053FBE8B39DF80000E9
:1020C000D0B3012802D0022842D10FE0214AA369EF
:1020D000921D911CC81F984770BB60782179884277
:1020E00000D048BB022000F051FB31E0A068012184
:1020F000184B0278A270E17000212C3313F8315094
:1021000065B1954207D103EBC1014A681149891DA8
:102110009047E07002E0491C1029EFDB607858B16D
:10212000E07880B10021E180A17841F08002A168CF
:102130000A70E288521C00E00AE092B2E280885401
:10214000E088401CE080D4E90213E28820799847B7
:10215000002038BD0000002070B515460846002458
:102160000822294600F028FB60B1B5F5964F01D949
:10217000232003E005496800B1FBF0F080B200F0D5
:102180007BFB00B90324204670BD0000A07F170030
:102190002DE9F0410D4C07461646A08888460025DB
:1021A000042804D3A1880A4800F074FA18B1052560
:1021B0002846BDE8F081064800783870A088C01E27
:1021C00030800348401CC8F80000F1E7B000002050
:1021D0004801002070B5134C0346002560780128A3
:1021E00002D00525284670BD491E0126A16008467B
:1021F00066800B70618811446180618800F04AFA42
:102200006188094A5318491C61801870010A608866
:102210000244401C6080117026700121002000F0F3
:1022200051FADFE7B000002048010020054910B551
:10223000002048700146012000F044FABDE810403B
:1022400000F076BAB000002010B50021084600F07A
:1022500039FABDE8104000F053BA00002DE9F04112
:102260000546002714B261B38818292829D8491EC9
:102270008EB293B1012B25D120E0082C01DD08207E
:1022800000E02046C2B23146104800F089FB083C0D
:10229000083605F8010B24B2B6B2002CEDDC11E0D3
:1022A00015F8013B082C01DD082000E02046C2B2F1
:1022B0003146064800F085FB083C24B2002CEFDCD8
:1022C00000E001273846BDE8F0810000C30000208F
:1022D0002DE9F0410646002714B2C1B1881829281B
:1022E00015D8491E8DB20FE0082C01DD082000E052
:1022F0002046C2B22946084800F052FB083C083587
:1023000006F8010B24B2ADB2002CEDDC00E0012791
:102310003846BDE8F0810000BE00002070B5002402
:10232000E9B38D18292D26D8491E244D09B27BB159
:10233000012B40D11CE000BF35F811301B0A03709F
:1023400015F811304370491C801C521E09B292B21C
:10235000002AF1D12FE003781B0225F811304678CE
:10236000801C334325F81130491C521E09B292B229
:10237000002AF0D11FE0B1F57A7F1BD940F2D17667
:10238000B54217D84FF6FF75A1F2E93105EA4202CE
:1023900009B205EA41051BB1012B0CD105E009E0AA
:1023A00001462846FEF7DCF805E001462846FEF720
:1023B00003F900E00124204670BD000098020020CF
:1023C00030B50023A9B18C18292C12D8491E09B2A6
:1023D000094C0BE034F811502D0A057014F8115017
:1023E0004570491C801C521E09B292B2002AF1D1DC
:1023F00000E00123184630BD48020020FEF734B942
:10240000014880897047000038030020064810B555
:10241000408900F052FB6FF0030200F096FFBDE828
:10242000104000F0E3BA00004802002010B502207E
:10243000FEF746FEBDE81040FFF798B910B503203F
:10244000FEF73EFEBDE81040FFF790B92DE9F041E0
:102450000026A0F50001B1F1FE4F22D34FF07F42DC
:10246000B2EB400F04D2BDE8F041012100F09BBF68
:10247000B0F1FF4F08BFBDE8F081B0F1004F08D9BF
:102480000120FDF71EFFBDE8F0410021084600F0E5
:1024900075BC30F000415ED06FF01606172100F0D9
:1024A00082FF00F500226FF07E0101EBE251C2F3E2
:1024B000025477184FF07E52A0EBC15602EB045540
:1024C00057EA040050D02946304600F0E3FB80462E
:1024D0002946304600F092FE414600F04FFC05468A
:1024E000014600F08DFD8046334900F089FD3349F7
:1024F00000F0D0FB06464146284600F081FD3146FB
:1025000000F07EFD0646384600F01AFD07462C49CD
:1025100000F076FD2B49794451F8241000F0BAFB05
:10252000314600F0B7FB06460121284600F03BFF8C
:10253000314600F0AFFB05463846234900F060FD08
:102540002249794451F8241000F0A4FB2946BDE843
:10255000F04100F09FBB0220FDF7B3FEBDE8F04163
:1025600000211B4800F00ABC4FF07E51304600F0BD
:1025700045FE0546174900F043FD174900F08AFB68
:10258000294600F03DFD154900F084FB294600F086
:1025900037FD6FF0824100F07DFB04462946084676
:1025A00000F02EFD214600F02BFD01462846BDE837
:1025B000F04100F06FBB000066F1CC3EAAAA2A3FB2
:1025C000F4FD0538621200000070313F1612000061
:1025D000000080BF21ED423E0A1180BEC1ABAA3E81
:1025E00008B5FDF7E3FE00201C4A1D4D014600BF63
:1025F00022F8101025F81010401C80B22828F7D3BC
:10260000184A194C002011542154401C80B205284E
:10261000F9D36846FDF740FF6846FDF743FF18B160
:10262000607840F0010060706846FDF741FF684641
:10263000FDF744FF18B1207840F020002070FEF72D
:1026400005FBFEF749FB0120FEF784FB2888401CB0
:102650002880FFF70BF8FFF749F8F7E7980200200A
:1026600048020020C3000020BE000020002804D043
:10267000012803D0072803D00420704702207047A8
:102680000620704700F080BA014A50601170704710
:102690003803002070B50A4DFF231A4605F58076F1
:1026A00006E000BF10F8014B54402A5D5A40335DEC
:1026B0000C00A1F1010189B2F4D142EA032070BDFE
:1026C0002234000810B50D4C0028208802D040F0BC
:1026D000200001E020F02000208029B1FEF734FB2B
:1026E000208840F0800006E0208820F080002080D4
:1026F000208840F04000208010BD00000C380140D0
:102700000A48018821F00101018008490020243194
:10271000088006480C30018821F001010180001D6D
:10272000018821F00101018070470000000800408D
:102730000A48018821F001010180001F018841F051
:102740000101018005490020143108800348103838
:10275000018841F00101018070470000100800402D
:102760000549024600204B78002B04D008781070F1
:102770000020487001207047BC0000200249002062
:102780004870012070470000BC000020044901226D
:102790004A7008700349100708601046704700002F
:1027A000BC00002004ED00E002490988017001200E
:1027B000704700000438014070B528480E461C469A
:1027C0008169154641F480418161816941F00401CC
:1027D00081612348016821F47F6141F49E610160B9
:1027E000FEF7B0FA1F4800210180021D1180121D62
:1027F00011800C2101801C49021F0968B1FBF6F110
:102800001180072D02D0082D08D103E0018821F4A2
:10281000805102E0018841F48051018024B1012CF3
:1028200006D0022C09D111E0018821F4806103E077
:10283000018841F400710CE00180018841F40051ED
:1028400001802520FEF7DCFA012070BD018821F40B
:1028500000710180018841F48061EDE700100240C1
:10286000040801400C380140CC00002001490880D8
:102870000120704704380140104910B5CA6942F080
:102880000402CA610E4900220A800E4944F6206300
:102890000968B1FBF3F10A4B491E28331980191D51
:1028A0000880074901201431088005480C30028057
:1028B0001E20FEF7A5FA012010BD00000010024006
:1028C00000080040CC00002038B500246846FFF71F
:1028D0006BFF1349487830B1124A012807D002280B
:1028E00010D0032801D1FFF723FF204638BD002078
:1028F00088809DF8003088880244401C88801370CE
:1029000002200BE08888FF2807D89DF800308888CF
:102910000244401C88801370E5E703204870E2E71A
:10292000B00000204801002070B5084D00246878F0
:1029300010B1022803D10120FFF728FF0446FFF75A
:10294000DFFE01206870204670BD0000B00000204E
:1029500070B5124C0025207810B101281CD104E07C
:1029600000210120FFF7AEFE16E0608850B1A0689C
:102970000078FFF77BFFA068401CA0606088401EC5
:10298000608009E00320FFF701FF054600210120D8
:10299000FFF798FE00202070284670BDB000002090
:1029A00010B5CB085C4201EBC40401219140C25C2C
:1029B0001844491E407842EA0020E0400840C0B276
:1029C00010BD70B5CC08654201EBC505AB400121D7
:1029D0009140491EA9400519025D6E7842EA06221F
:1029E0008A431A430255100A687070BD21F00042F4
:1029F000A2F16052B2F5801F01F0004328BFD2F16E
:102A00007F6C0BD95FEA001C43EAC20242EB5070B4
:102A100018BF704728BF20F001007047B2F5801F33
:102A2000BCBF184670474FEA410C1CF5001F02D28C
:102A3000084600F0ACBB70B500F052F80000008909
:102A4000FFF7F6BF4FF00040A0F580007047000090
:102A500002494FF0000000F046BC00BF0000F87FC4
:102A60004FEA1153A3F58063D3F11E03A8BFD3F13E
:102A7000200C08DB4FF0004242EAC12252EA5052D9
:102A800032FA03F0704709420BD4102BC4BF002068
:102A9000704703F5787CBCF1FF3F05D04FF0FF3065
:102AA00070474FF00000704770B500F019F800BF94
:102AB0004992248000207047F0E7B0FA80F310FAC2
:102AC00003F10AD0C3F11D0303F580634FEA4150BF
:102AD0004FEA035202EBD12170474FF000007047DC
:102AE0000EF1020E2EF0030E5EF8046B364205D492
:102AF000012A43EB030515F5001F12D8012841EB0D
:102B0000010C1CF5001F0CD80ED14FEAD17C15F535
:102B1000001F0CEB4C0C0CF1020C08BF4CEBD37CEF
:102B200004E04FF0080C01E04FEAD37C0CEB4C05BD
:102B300026FA05F606F00706B6F1040C06D20EEBEF
:102B4000860CBDE870404CF0010C6047DFE80CF0EB
:102B5000090B02024FF000414FF00000A1F50021E7
:102B600070BD19461046012851EB010418BFD4F579
:102B7000001484BF002001F0004170BD0808A0F5DA
:102B800000114FEA310170475FEA410C5FEA5C5C7B
:102B9000ACF580635B1C39D4D3F1340240F345803B
:102BA000B2F1200314DA4FF0010C0CFA02FCACF184
:102BB00001030340B3EB5C0220EA030008BF10EA04
:102BC0000C0F98BF704710EB0C0041F100017047EB
:102BD0000AD0C3F1200201FA02FC012821FA03F114
:102BE00001FA03F14CF100004FF0010C0CFA03FC68
:102BF000ACF10103B0F1004F21EA030108BF11EA73
:102C00000C0F4FF0000088BF61447047B3F1FF3FE5
:102C100028BF50EAC12C01F000414FF0000084BFF2
:102C200041F07C5141F470017047B3F5806FB8BF3B
:102C3000704770B5FFF754FF40DBB6BE43004FEA64
:102C4000D30C4FEA3C0C43401FBF40070CF16051CE
:102C500013F0FE4F70471CF0006F03D100200CF002
:102C6000004170470CF0004343EA507010B540EA51
:102C7000CC0000F046FA00BF000000924FEA0001CD
:102C8000FFF77CBF4FF000414FF00000A1F500219D
:102C90007047000090EA010F48BF81F0004100F149
:102CA000B482421A3CBF801A89184FEAD0524FF0C2
:102CB0007F4C1CEA410FA2EBD15318BF9CEA026F74
:102CC00000F03B804FF0004C4CEA00204CEA012120
:102CD00021FA03FC10EB0C0C1ED202F1FF325FEA6A
:102CE0001C2040EBC25038BF70471CF07F0F4FEAEA
:102CF000400C18BFBCF17F4F38BF7047C3F12003B1
:102D0000994008BF20F00100BCF17F4F38BF7047E9
:102D1000A0F1C04000F03BBA4FEA3C00000A40EB93
:102D2000C25028BF1CF0FF0F4FEA400CE6D018BF7E
:102D3000BCF17F4F38BF7047EAE79CEA026F05D0CD
:102D400010EA5C0F08BF00F00040704710B500F0BB
:102D5000D8F900BF64FBBE3E014800F0C4BA00BF12
:102D60000000C07F401058BFC0F14040491058BF1C
:102D7000C1F140418142EFF3008070474FF47F0C76
:102D80001CEAD0121EBF1CEAD11392EA0C0F93EA80
:102D90000C0F00F0858090EA010F48BF42F480726A
:102DA00040F4000C41F400002CF07F4120F07F4003
:102DB00000B58142A2EB03020FF2081CACEB504EAF
:102DC000C0F100009EF800E04FEA4E0E00FB0EFC42
:102DD00038BF49004FEA2C1C02F5FA020CFB0EF337
:102DE0004FEACE1E4FEA112C4FEAC1210EEB635E73
:102DF00042EB22420EFB0CFC4FEA1C5300FB03117A
:102E00004FEA112C4FEA01310EFB0CFC4FEADC4C6F
:102E100000FB0C11C14228BF09184CEB03335DF8CD
:102E200004EB10EB410143EBC250B2F57C0F38BF0D
:102E3000704729D512F0F00F1CBF00F1C04000F020
:102E400000407047008182838485868788898B8CC7
:102E50008D8E8F919293959697999A9C9D9FA0A203
:102E6000A3A5A7A8AAACAEB0B2B3B5B7B9BCBEC053
:102E7000C2C5C7C9CCCED1D4D7D9DCDFE2E6E9ECF4
:102E8000F0F3F7FAFE0000004FEA400C0CF1807CF2
:102E9000BCF17E4F28BF7047B0F1C04000F077B959
:102EA00090EA010F0CEAD11348BF42F480726245E8
:102EB00038BF634507D213F47F0F16D080EA0100B4
:102EC00000F00040704710B500F01BF9097EFC3E91
:102ED00000F005B880EA010000F00040704780EA89
:102EE000010000F0004000F052B912F47F0F04BF5F
:102EF0000248704780EA010000F049B90000C07F35
:102F0000C10DD1F19E0206DB4FEA002343F00043DE
:102F100023FA02F07047004207D54FEA4001B1F1B1
:102F2000FE4F02D24FF00000704710B500F0E9F8F4
:102F300049922480002070476FEA2000704700000B
:102F400010F0004148BF4042B0FA80F310FA03F29B
:102F5000C3F19D030BD051EAC35101EB122053067C
:102F600038BF704700F1010008BF20F00100704732
:102F7000B0FA80F310FA03F2C3F19D030AD0D90529
:102F800001EB1220530638BF704700F1010008BF63
:102F900020F001007047000050EA010C00F113809E
:102FA0001CF5000F58BFBCF5000F01D488427047D4
:102FB00007D710F5000F58BF11F5000F15D4884240
:102FC0007047894270471CF5000F04D5BCF5000F0F
:102FD000F7D5814270474FF0807C1CEB400F38BF23
:102FE0001CEB410F01D28142704710B500F089F807
:102FF000922449004FF000504FF08051FFF7B2BECD
:103000004FF47F0C1CEAD0121EBF1CEAD11392EAC7
:103010000C0F93EA0C0F00F0478090EA010F48BFB5
:1030200042F480724FF0004C4CEA00204CEA01213F
:1030300002EB0302A0FB0113A2F50002002918BF56
:1030400043F001035B0028BF4FEA330342EB224207
:103050005FEA132C4CEBC2502EBFBCEB436FB2F5B2
:103060007C0F70474FEA036CBCF1004F08BF20F0A3
:103070000100B2F57C0F38BF70470BD582F0FF021C
:1030800012F5803FC8BF704700F1C040D8BF00F0C4
:103090000040704700F5000C5FEA4C0C48BF7047D9
:1030A000B0F1C04000F073B890EA010F0CEAD11300
:1030B00048BF42F48072624538BF634504D280EA5B
:1030C000010000F00040704710B500F01AF800BF92
:1030D0008900013E00F007B800F009B85FEA410C32
:1030E0005FEA1C6C08D080EA010000F050B85FEA8B
:1030F000400C5FEA1C6CF6D14FF00040A0F5800058
:1031000070470EF1020E2EF0030E5EF8044B2442BF
:1031100004D44FEA4102B2F17F4F11D84FEA400385
:10312000B3F17F4F0CD80ED14FEAD07CB2F17F4F74
:103130000CEB4C0C0CF1020C08BF4CEBD17C04E006
:103140004FF0080C01E04FEAD17C0CEB4C0324FA61
:1031500003F404F00704B4F1040C06D20EEB840C63
:10316000BDE810404CF0010C6047DFE80CF00708A8
:1031700002024FF00040A0F5800010BD084642005A
:1031800018BFD2F1807288BF00F0004010BDFF214F
:1031900041EAD050C005704751EA000C00F113809D
:1031A0001CF5000F58BFBCF5000F01D481427047D9
:1031B00007D711F5000F58BF10F5000F15D4814245
:1031C0007047894270471CF5000F04D5BCF5000F0D
:1031D000F7D5884270474FF0807C1CEB410F38BF19
:1031E0001CEB400F01D28842704780EA010081EA5F
:1031F000000180EA0100FFF7F8BE000090EA010F2D
:1032000048BF81F000413FF54CAD421A04D882F02E
:103210000042A0EB020011444FEAD0524FF07F4C25
:103220001CEA410FA2EBD15318BF9CEA026F4AD0AF
:103230004FF0004C4CEA00204CEA012121FA03FC3B
:10324000B0EB0C0C0FD412F0FE0F36D05FEA4C003E
:103250001DD5001240EBC25038BF70471CF03F0F25
:1032600018BF70470BE0A2F101025FEA1C2040EB9F
:10327000C25038BF70471CF07F0F18BF7047C3F1B2
:103280002003994014BF401E20F0010070478008C1
:103290004FEA122308BF7047B0FA80FCA2EB0C0281
:1032A000CCF1280C60FA0CF093EA122F04BF00EB6B
:1032B000C25070474FEAC3707047130A5FEADC10D0
:1032C00008BF7047F6E79CEA026F04D010EA5C0F73
:1032D00008BF0020704710B5FFF713FF40DFF63E30
:1032E00081F0004070470CF00F03092B08BF082045
:1032F00000F07F800A2B0BD0082B18BF704708BF47
:103300001CF0400F0AD04FF000004FF00001704752
:103310001CF0400F18BF4FF0004070471CF0100F1A
:1033200008D020F0704300F07F4242EAD3014FEA18
:103330004370704700F0604021F07F4242EA000293
:1033400001F07F4040EA727070474FF0FF0C4CF480
:10335000E06C1CEA11531CBF9CEA030C9445C2BFED
:10336000DA4201EB02517047002B0DD0BCF1000F87
:103370000FD0002A01F00041A4BF41F0E04141F02C
:103380007F614FF00000704701F000414FF00000F6
:10339000704750EA01334FF09B0C18BF4CF0806C23
:1033A0007FF456AB70474FF0FF0212EAD0521CBFB9
:1033B00092F0FF038B42C2BFD14200EBC150704775
:1033C000002A0AD0002B0BD0002900F00040A4BF37
:1033D00040F0FE4040F40000704700F000407047AD
:1033E00043024FF00B0C18BF4CF0806C7FF4B4AC70
:1033F00070471CF4801F11D01CF4E02F03D06FEA3B
:10340000CC31490070474FF04050EFF3008222F07A
:10341000704242EA000282F3008870474FF00000D9
:10342000704700C1814001C0804101C0804100C19E
:10343000814001C0804100C1814000C1814001C084
:10344000804101C0804100C1814000C1814001C074
:10345000804100C1814001C0804101C0804100C164
:10346000814001C0804100C1814000C1814001C054
:10347000804100C1814001C0804101C0804100C144
:10348000814000C1814001C0804101C0804100C134
:10349000814001C0804100C1814000C1814001C024
:1034A000804101C0804100C1814000C1814001C014
:1034B000804100C1814001C0804101C0804100C104
:1034C000814000C1814001C0804101C0804100C1F4
:1034D000814001C0804100C1814000C1814001C0E4
:1034E000804100C1814001C0804101C0804100C1D4
:1034F000814001C0804100C1814000C1814001C0C4
:10350000804101C0804100C1814000C1814001C0B3
:10351000804100C1814001C0804101C0804100C1A3
:10352000814000C0C101C30302C2C60607C705C56A
:10353000C404CC0C0DCD0FCFCE0E0ACACB0BC909DB
:1035400008C8D81819D91BDBDA1A1EDEDF1FDD1DEB
:103550001CDC14D4D515D71716D6D21213D311D11B
:10356000D010F03031F133F3F23236F6F737F5356B
:1035700034F43CFCFD3DFF3F3EFEFA3A3BFB39F99B
:10358000F83828E8E929EB2B2AEAEE2E2FEF2DED6B
:10359000EC2CE42425E527E7E62622E2E323E121DB
:1035A00020E0A06061A163A3A26266A6A767A565EB
:1035B00064A46CACAD6DAF6F6EAEAA6A6BAB69A95B
:1035C000A86878B8B979BB7B7ABABE7E7FBF7DBD6B
:1035D000BC7CB47475B577B7B67672B2B373B1719B
:1035E00070B050909151935352929656579755956B
:1035F00094549C5C5D9D5F9F9E5E5A9A9B5B99591B
:103600005898884849894B8B8A4A4E8E8F4F8D4DEA
:103610004C8C44848545874746868242438341815A
:1036200080402A222A222A222A222A22390E00080F
:10363000790E0008850E0008910E0008CD0E0008D6
:10364000D90E0008E50E0008250F0008310F00080C
:103650003D0F00087D0F0008890F0008005EBCE2E6
:10366000613FDD83C29C7E20A3FD1F419DC3217F5E
:10367000FCA2401E5F01E3BD3E6082DC237D9FC152
:10368000421CFEA0E1BF5D0380DE3C62BEE0025C46
:10369000DF81633D7C22C09E1D43A1FF4618FAA432
:1036A00027799BC584DA3866E5BB5907DB8567391E
:1036B000BAE406581947A5FB7826C49A653BD98712
:1036C000045AB8E6A7F91B45C6987A24F8A6441A06
:1036D00099C7257B3A6486D85B05E7B98CD2306EF2
:1036E000EDB3510F4E10F2AC2F7193CD114FADF3DE
:1036F000702ECC92D38D6F31B2EC0E50AFF1134DD2
:10370000CE90722C6D33D18F0C52B0EE326C8ED0C5
:10371000530DEFB1F0AE4C1291CF2D73CA947628B1
:10372000ABF517490856B4EA6937D58B5709EBB59D
:1037300036688AD495CB2977F4AA4816E9B7550B91
:1037400088D6346A2B7597C94A14F6A8742AC89685
:10375000154BA9F7B6E80A54D7896B35000000006D
:103760000030F13D0070643E0000A33E0090CF3E6B
:103770000090F83E00400F3F00E0203F00000000B6
:1037800015B78337CDE37B380EE1C53860F6913845
:10379000AF5F0F38E1BC3E3823F44739BC3700082F
:1037A00000000020280100005C010008E438000847
:1037B00028010020E00A0000780100080200000053
:1037C00000000000000000000000000000000000F9
:1037D00000000000000000000000000000000000E9
:1037E000000000000000000011000000B11E0008F1
:1037F00004000000B51D000803000000591D00086A
:1038000010000000D91F000806000000431F000838
:1038100017000000151E000801000000751C0008BC
:1038200005000000ED1E00080F000000751F0008D5
:1038300002000000E71C000800000000000000007B
:103840000000000000000000000000000000000078
:103850000000000000000000000000000000000068
:103860000000000000000000000000000000000058
:103870000000000000000000000000000000000048
:10388000000000000000000000366E010000000093
:10389000000000000000000000000000010203041E
:1038A00006070809000101000000000000000000F8
:1038B0000000000000000000000000000000000008
:1038C00000000000000000000000000000000000F8
:1038D00000000000000000000000000000000000E8
:0438E00000000000E4
:0400000508000121CD
:00000001FF
