:020000040800F2
:10000000100C00200D02000815020008170200085D
:10001000190200081B0200081D0200080000000071
:10002000000000000000000000000000DD010008EA
:100030002102000800000000ED0F0008691400080C
:1000400027020008270200082702000827020008EC
:1000500027020008270200082702000827020008DC
:1000600027020008270200082702000827020008CC
:1000700027020008270200082702000827020008BC
:1000800027020008270200082702000800000000DD
:10009000000000000000000000000000270200082F
:1000A000270200082702000827020008270200088C
:1000B0002702000827020008C515000827020008CB
:1000C000270200082702000827020008270200086C
:1000D00027020008E515000827020008270200088B
:1000E000270200082702000827020008000000007D
:1000F0000000000000000000000000000000000000
:1001000000000000000000000000000000000000EF
:10011000000000000000000027020008270200087D
:1001200000F002F800F04AF80AA090E8000C8244BF
:100130008344AAF10107DA4501D100F03FF8AFF29C
:10014000090EBAE80F0013F0010F18BFFB1A43F0B5
:10015000010318476C3800008C3800000A4410F87E
:10016000014B14F00F0508BF10F8015B240908BF0C
:1001700010F8014B6D1E05D010F8013B6D1E01F803
:10018000013BF9D1641E03D0641E01F8015BFBD171
:100190009142E4D37047000000230024002500268C
:1001A000103A28BF78C1FBD8520728BF30C148BFDA
:1001B0000B6070471FB51FBD10B510BD00F0D2F821
:1001C0001146FFF7F7FF02F0F3F900F0F0F803B47F
:1001D000FFF7F2FF03BC00F0F1F800001EF0040F7F
:1001E0000CBFEFF30880EFF3098090E80F1000B523
:1001F000E0475DF804EB1EF0020F0CBFEFF3088C34
:10020000EFF3098C8CE80F00704700000948804725
:1002100009480047FEE7FEE7FEE7FEE7FEE7FEE7E8
:10022000FEE7FEE7FEE7FEE704480549034A054B03
:1002300070470000911400082101000810040020FC
:10024000100C002010040020032A40F2308010F02F
:10025000030C00F0158011F8013BBCF1020F624461
:1002600098BF11F801CB00F8013B38BF11F8013BF2
:10027000A2F1040298BF00F801CB38BF00F8013B9F
:1002800011F0030300F03380083AC0F0088051F801
:10029000043B083A51F804CBA0E80810F5E7121D1A
:1002A0005CBF51F8043B40F8043BAFF30080D20739
:1002B00024BF11F8013B11F801CB48BF11F8012B05
:1002C00024BF00F8013B00F801CB48BF00F8012B28
:1002D000704770477047704710B500F03BF80068F2
:1002E00010BD10B5044600F035F8046010BD10B51F
:1002F000203AC0F00B80B1E81850203AA0E818501E
:10030000B1E81850A0E81850BFF4F5AF5FEA027CDE
:1003100024BFB1E81850A0E8185044BF18C918C04D
:10032000BDE810405FEA827C24BF51F8043B40F8EE
:10033000043B08BF7047D20728BF31F8023B48BFD3
:1003400011F8012B28BF20F8023B48BF00F8012B11
:100350007047000000487047B00300200048704715
:10036000B00300207546FFF7F9FFAE460500694669
:10037000534620F00700854618B020B5FFF754FF1C
:10038000BDE820404FF000064FF000074FF0000896
:100390004FF0000B21F00701AC46ACE8C009ACE817
:1003A000C009ACE8C009ACE8C0098D4670470446F6
:1003B000AFF300802046FFF70AFF00000149182034
:1003C000ABBEFEE72600020070470000294910B5C9
:1003D00008684FF6FF021040274A40F4E0601043DF
:1003E0000860FF216FF0010000F0FEFC00F064FEE9
:1003F000234922488A6942F400628A614FF4184214
:100400000281204A136823F470231360136843F4B5
:1004100000231360028942F480420281028842F084
:1004200001020280CA69880442F00102CA61002206
:100430000280028544F61F62828501228282028048
:10044000602303830284886940F0040088610D48BA
:10045000001F016821F00F0141F00B01016001F064
:100460007BF801F03FF801F0C7FABDE8104000F05A
:1004700067BC00000CED00E00000FA05002C014014
:10048000001002400408014070B50D46094901EB17
:1004900040014C5D00F07EFE2946204601F07CF9CB
:1004A0000546062000F076FEAC4201D1012070BD69
:1004B000002070BD463800080146014800F050B8E1
:1004C000503800080146014800F04AB85C3800087E
:1004D0000146014800F044B8683800080146014868
:1004E00000F03EB8743800082DE9F0410F460500D1
:1004F00025D028688047002822D0A9680120884795
:1005000000281DD068688047002819D0CC212846D3
:1005100000F028FDBE21284600F024FD0026DFF86B
:100520003C803446FF21284600F01CFD38557040C1
:10053000641C18F80060E4B2092CF3D316B1002053
:10054000BDE8F08168688047CC21284600F00AFDAC
:100550004421284600F006FD0120F1E7803800081C
:100560003EB50C466946FFF7BFFF002807D09DF84F
:1005700000009DF8011000EB0120208001203EBD0D
:1005800070B50C46064615460021A02001F0D6FAAB
:1005900060B1300A01F0A0FA40B1F0B201F09CFA6B
:1005A00020B10121A02001F0C9FA40B901F000FBFF
:1005B000002070BD002001F059FA04F8010B6D1EF7
:1005C0002D042D0CF6D1012001F050FA207001F01D
:1005D000EFFA012070BD000070B50C4606461546C6
:1005E0000021A02001F0AAFAA8B1300A01F074FAA3
:1005F00088B1F0B201F070FA68B100BF14F8010BD5
:1006000001F06AFA38B16D1E2D042D0CF6D101F0FF
:10061000CFFA012070BD01F0CBFA002070BD0000C0
:100620000A498A6942F004028A6108B1022001E0A5
:100630004FF400300649086005481038016821F081
:10064000F00141F0300101607047000000100240ED
:10065000100801400A498A6942F004028A6108B11F
:10066000042001E04FF48020064908600548103856
:10067000016821F4706141F440710160704700002D
:100680000010024010080140F0B51548DFF854C0D2
:10069000002601784FF6FF7735463CF811303A4690
:1006A0000624491CC9B21846072900D300213CF88A
:1006B0001130181A80B2A84200D90546904200D2E3
:1006C00002463044641E86B214F0FF04E9D1701B68
:1006D000801AC0F38D00C0EB001007EA8000F0BD67
:1006E000E80000205003002070B529480178002957
:1006F00037D00025057000F071F800F099F8254E0C
:10070000D6E9011002F08CFE234C4FF0804201210B
:10071000E378CBB1E560904201DD6170A570B0F186
:10072000404F01D96570A170307801282DD0022882
:1007300025D0032818D06570A57000F079F8BDE8C1
:100740007040002000F0D0B96570A57020F0004026
:10075000904207DDE068401CE060B0F5E16F00D337
:10076000E17070BDE56070BD607808B100F07EF8A2
:10077000A0780028F7D0BDE8704000F01FB9617084
:10078000A570BDE8704000F071B8A1706570F2E727
:10079000C800002040030020E8000020014908872D
:1007A00070470000004001400A498A6942F0040293
:1007B0008A6108B1082001E04FF400200649086072
:1007C00005481038016821F4704141F4405101603E
:1007D0007047000000100240100801400E4810B59C
:1007E00001880F4C0D4A207822F81010401CC0B22E
:1007F0002070072801D300202070FFF745FFE0801C
:10080000208918B12089401E208110BDBDE810400C
:100810000020FFF7C9BF0000242C01405003002036
:10082000E800002001498886704700000040014030
:100830000B4810B500881E2802D3002000F054F9A0
:10084000084C608902F002FD6FF0030102F0BDFE6A
:10085000217B01F001FF01F0C1FD0349886010BD5B
:100860002A010020A0020020400300202DE9F05FB3
:10087000DFF82091DFF814A1DFF814B199F8010036
:1008800000286ED0FFF7D4FF434886684568B0461D
:10089000284602F04DFB044640480F46808802F08F
:1008A0009CF96FF0030202F062FE22463B4602F022
:1008B00055FA02F083F83A4902F0DCFC294602F0CE
:1008C000A5FDD9F82C104C46C9F8281089463146A8
:1008D00002F0A6FD06465146E06202F0CBFC074658
:1008E00020636FF00A01304602F06FFE616B02F088
:1008F0004BFB2C496063884202D82B49884200DDBB
:1009000061634946304602F08BFD594602F0B2FC65
:10091000264902F0AFFC06462549A06B02F0AAFC6E
:10092000314602F031FBA06306463846616B02F0A7
:100930002BFB314602F028FB0026E063B0F5000FE8
:1009400001DBE66303E01B49884200D9E1632946E5
:10095000404602F065FD1849884203D3E670E6631D
:1009600008E011E0E06B884204D33C2020810120A4
:10097000FFF71AFFE088642801D2002000E0E06B56
:10098000BDE8F05F00F0B0B8BDE8F09F0000F03DBA
:1009900000001641E8000020400300205002002023
:1009A000CDCCCC3D9A9999BE9A99993ECDCC4C3EEE
:1009B000CDCC4C3F000080BF000080802DE9F05F6F
:1009C000DFF80491DFF8F8A0DFF8F8B099F802003A
:1009D000002873D0FFF72CFF3C4886684568B04676
:1009E000284602F0A5FA044639480F46808802F0EE
:1009F000F4F86FF0030202F0BAFD22463B4602F023
:100A0000ADF901F0DBFF334902F034FC294602F076
:100A1000FDFCD9F814104C46C9F81010894631462F
:100A200002F0FEFC06465146606102F023FC0746D8
:100A3000A0616FF00B01304602F0C7FDE16902F0E2
:100A4000A3FA2549E061884202D82449884200DDA2
:100A5000E1614946304602F0E3FC594602F00AFCE7
:100A60001F4902F007FC06461E49206A02F002FCFC
:100A7000314602F089FA206206463846E16902F002
:100A800083FA314602F080FA0026606210F1FF4FCF
:100A900001D3666204E04FF07E51884200DD61625E
:100AA0002946404602F0BCFCB0F5000F01DBE670C1
:100AB0006662606ABDE8F05F00F016B8BDE8F09FBE
:100AC0000000203D0080A240E800002040030020FC
:100AD00050020020CDCCCC3D9A9999BE9A99993E6E
:100AE000CDCC4C3ECDCC4C3F70B5214C214602F0D4
:100AF000C1FB214602F048FA02F070FB1D4980B2AA
:100B00004FF47A761C4C888140F2DE35B04214D224
:100B1000C0F57A70A0800020FFF784FEA088A8426C
:100B200001D9304605E0A0880A2801D2002000E063
:100B3000A088BDE87040FFF731BEB04214D9A0F5DF
:100B40007A70A0800020FFF729FEA088A84201D972
:100B5000304605E0A0880A2801D2002000E0A088E5
:100B6000BDE87040FFF75EBE0020FFF75BFEDDE7EB
:100B700000007A4440030020E800002038B56846B1
:100B8000FFF7A0FC154D164C0021B8B1A180154A05
:100B9000BDF900002882B2F91020A2F1F003B3F5EC
:100BA000207F11D8104B5B7813F0010F0CD09042CE
:100BB00001DA012000E00020607006E0A0881E2815
:100BC00002D2401CA08000E06170607800F00EF856
:100BD000607808B14FF47A70688238BD5002002006
:100BE00028010020A0020020C300002009498A69D2
:100BF00042F010028A6110B14FF4005101E04FF051
:100C0000005105480161416821F4700141F440112F
:100C100041607047001002400010014070B5214D46
:100C20000024204600F0B6FAFF2000F015FFFF2058
:100C300000F012FFFF2000F00FFFFF2000F00CFF7C
:100C4000FF2000F009FFFF2000F006FFFF2000F06A
:100C500003FF05EB4400012140784030C0B200F0B2
:100C60009BFD062000F096FA641CE4B2052CD8D354
:100C7000DC2000F0B1FF0024204600F08BFA15F8CC
:100C8000140000214030C0B200F086FD062000F0C4
:100C900081FA641CE4B2052CEED3BDE87040DC2080
:100CA00000F09ABF463800087CB500246D4600214C
:100CB0002046FFF7E9FB2855641CE4B2052CF6D367
:100CC0000020134901232A5C5AB100EB80020F3245
:100CD00001EBD20602F00702347803FA02F2144361
:100CE0003470401CC0B20528EDD3487802060DD5FB
:100CF0008A78D2060AD4CA78930707D4520605D454
:100D00000A79120702D440F0040048707CBD00004C
:100D1000BE0000207047000001490020C8607047F5
:100D2000C800002008B50221009101464FF4165377
:100D30000122002001F060F9BDE8084000F072BF18
:100D400070B50B4800250A21C5604068B0FBF1F082
:100D5000401EB0F1807F09D24FF0E02460610F2186
:100D6000601700F041F8A5610720206170BD000008
:100D7000C80000200348C068322801D30120704712
:100D800000207047C800002044F6206148434FF41B
:100D9000D841B0FBF1F04FF08041888670470000E9
:100DA00009498A6942F010028A6110B14FF480410A
:100DB00001E04FF0804105480161416821F0706118
:100DC00041F0407141607047001002400010014046
:100DD00000F01F020121914040094FF0E02202EB98
:100DE0008000C0F8001170470907090E002803DAD7
:100DF00000F00F00024A00E0024A815470470000F0
:100E000014ED00E000E400E00C4800B5816941F019
:100E1000080181610A48016821F4700141F4E00190
:100E20000160084A01201060052000F0E3FE52F83E
:100E3000800C002800D0012000BD000000100240FE
:100E4000040C0140B4812142DFF804C000DF704788
:100E5000F9170008DFF804C000DF704735180008F4
:100E60000B4800B5816941F00401816109480168BE
:100E700021F00F01C91D0160074A01201060052003
:100E800000F0B8FE52F8800C002800D0012000BD10
:100E90000010024004080140A0012142DFF804C014
:100EA00000DF704779180008DFF804C000DF7047E2
:100EB000B51800080C4800B5816941F00401816152
:100EC0000A48016821F4704141F4E0410160084A98
:100ED00001201060052000F08DFE52F8800C0028E3
:100EE00000D0012000BD00000010024004080140B5
:100EF000AC012142DFF804C000DF7047F918000898
:100F0000DFF804C000DF7047351900080C4800B551
:100F1000816941F0040181610A48016821F0704152
:100F200041F0E0410160084A01201060052000F016
:100F300061FE52F8800C002800D0012000BD0000A6
:100F40000010024004080140BC012142DFF804C047
:100F500000DF704779190008DFF804C000DF704730
:100F6000B51900082DE9F04108250C4606468027F2
:100F7000B16804F00100884710B147EA540400E06A
:100F800064086D1EF4D12046BDE8F0814FF47A71FB
:100F900048434FF4D841B0FBF1F001490880704755
:100FA0003C0400404FF47A7148434FF4D841B0FB01
:100FB000F1F0014908807047400400404FF47A7115
:100FC00048434FF4D841B0FBF1F001490880704725
:100FD000340400404FF47A7148434FF4D841B0FBD9
:100FE000F1F00149088070473804004001F044B82E
:100FF00009498A6942F010028A6110B14FF4004138
:1010000001E04FF0004105480161416821F0704165
:1010100041F0405141607047001002400010014013
:101020002DE9F04700270C468146142501F10806FA
:10103000484600F0AFF8F0B200F00EFDFF2000F0DF
:101040000BFD8046062000F0A5F85FEA086014D486
:10105000484600F09FF83834E0B200F0FDFCFF2075
:1010600000F0FAFC0446FF2000F0F6FC00EB042040
:1010700087B2062000F08EF806E00A2000F0ACFDF2
:101080006D1E15F0FF05D3D13846BDE8F08700008E
:1010900010B50022074B114603EBC10434F8104091
:1010A000491C224489B292B20A29F5D30A20B2FB24
:1010B000F0F010BDF00200202E4800B5416941F06B
:1010C000010141612C4900238B6043F2A0528A60E8
:1010D0002A4A0A612A4A4A612822CA608A6842F07A
:1010E00001028A60816941F00401816125490A6831
:1010F00022F47F020A60816941F4007181614168D4
:1011000021F4404141F4004141601C4980154839B7
:1011100008600A1D1C48106018491C483C390860CA
:10112000091F4FF410000860144919481839086065
:10113000081F036011494FF4401020390860012056
:1011400000F058FD106840F001001060106840F099
:101150000800106010680007FCD4106840F004001C
:10116000106010684007FCD4106840F4A0001060C4
:1011700000BD000000100240000002404C2401406D
:10118000F0020020000801400301800007F0030086
:101190001192020011498A6942F008028A611049DD
:1011A0000A68104B6FF313021A430A600C490C31A2
:1011B00005280FD2DFE800F0030507090B000A48F5
:1011C00006E00A4804E00A4802E00A4800E00A484B
:1011D000086070474FF4F850FAE700000010024032
:1011E000040C014033330300001E0001000F001007
:1011F00000170008001D0002001B00040CB50021B0
:101200001F4801910091026842F4803202604FF45D
:10121000A063026802F400320092019A521C01920B
:10122000009A12B9019A9A42F3D10268920324D526
:10123000012100914168416041684160416841601D
:10124000416821F47C114160416841F4981141608A
:10125000016841F08071016001688901FCD5416835
:1012600021F003014160416841F0020141604168A1
:10127000C1F381010229FAD10CBD00910CBD00001F
:10128000001002402DE9F041FFF774FD0546FFF71D
:101290002BFA3E4C6078A17800F0800001F010013C
:1012A0000843E17801F00202104301F040010843D5
:1012B000217901F00801084300D00120FFF798FED2
:1012C0006078334EC0F38000A84370784FEA4070D6
:1012D00003D0002806DA012002E0002802DA00200C
:1012E000FFF786FE60782B4F4FEAD010A8430CD052
:1012F0007078000609D50120FFF7ACF90120FFF74F
:101300004FFDF88BFFF740FD08E00020FFF73CFDA4
:101310000020FFF745FD0020FFF79CF9A078C0F3FF
:101320000010A84304D0B078C00601D5388D00E085
:101330000020FFF72BFEE078C0F34000A84304D064
:10134000F078800701D5788E00E00020FFF72AFEB4
:10135000E078C0F38010A84304D0F078400601D5AF
:10136000B88F00E00020FFF729FE2079C0F3C0000D
:10137000A84305D03079000702D5B7F8460000E051
:101380000020BDE8F041FFF725BE0000C3000020AB
:10139000BE000020A00200207CB56846FFF78CF854
:1013A000194C10B1BDF80000A0806846FFF790F816
:1013B00040B1BDF800006084A085E086A4F840003C
:1013C000A4F84A00114D2878800615D501A8FFF72A
:1013D00085F80F4928B100204880BDF804006081DD
:1013E00004E048881E2801D2401C488000F0F0FF2D
:1013F000A08100F0EBFFE0816878C00701D0FFF723
:10140000BDFBFFF771F97CBD50020020BE0000203B
:101410002801002010B500F0F9FF042102F0D5F8F2
:1014200001F086FD01F016F901F0AAFB0A49C88017
:10143000FFF75AF900F0E2FF084A0949904201DD3E
:1014400001220A70074A904201DA002008700878E9
:10145000BDE81040FFF7E4B850020020000022422F
:101460002801002000001E420848C168491C00D025
:10147000C16081680A22491CB1FBF2F3816002FB62
:101480001311002901D1012101707047C80000200B
:10149000104810B5016841F00101016041680E4A31
:1014A0001140416001680D4A11400160016821F45A
:1014B00080210160416821F4FE0141604FF41F0169
:1014C00081600021C162FFF799FE05494FF000607D
:1014D000086010BD001002400000FFF8FFFFF6FE9C
:1014E00008ED00E0194918488A6942F480328A619F
:1014F0000022028045F6BF52028540F2E732828523
:1015000001228282028046F260020283112202845A
:101510008A6942F001028A610D4AD36943F00103EE
:10152000D3618A6942F008028A610A490A6822F096
:101530007F4242F03B420A60B0F8441041F400415F
:10154000A0F8441070470000004001400010024025
:1015500000000140040C014017491648CA6942F0D6
:101560000202CA6100220280028540F2E7328285CF
:1015700001228282028046F260020283828343F269
:1015800033320284886940F0040088610B480268A5
:1015900022F07F4242F03B420260886940F008003E
:1015A00088610748016821F0FF0141F0BB0101603B
:1015B0007047000000040040001002400008014095
:1015C000000C014005480188C90706D0018821F0B8
:1015D0000101018002480068004770471008004080
:1015E0002800002070B5114C2088114D800605D5CB
:1015F0002888800602D50F480068804720880006AA
:1016000005D52888000602D50B4800688047208849
:1016100040060AD52888400607D5208820F04000DB
:101620002080BDE87040FFF775BB70BD0C380140ED
:10163000003801402000002024000020F0B587B0D1
:101640000024274605AE6D46E0B20021FEF71CFFE0
:10165000305545F82470641CA4B2052CF4D3FFF770
:101660009BFE0027FFF70EFE0024305D40B1E0B284
:101670000021FFF7D5FC55F82410084445F8240054
:10168000641CA4B2052CF0D37F1CBFB2042FE9D395
:10169000094A0020315C41B155F8201000EB80036D
:1016A000B1FBF7F102EB4303D983401C80B205285C
:1016B000F0D307B0F0BD0000500200202DE9FC413E
:1016C00000246F46E0B20121FEF7DEFE3855641CAF
:1016D000A4B2052CF6D3FFF79DFE0026FFF7D2FD3E
:1016E0000025785DD8B11348012100EB051460682E
:1016F0002060A0686060E068A060E8B2FFF790FC3E
:10170000E060D4E900121144A268104408440A4A77
:1017100005EB850102EB4101C0F38F0008846D1CCD
:10172000ADB2052DDDD3761CB6B2022ED6D3BDE800
:10173000FC810000600300205002002070B50446C8
:10174000642801D80F4870BDB4F57A6F01D30E48F4
:1017500070BDC4F5805001F079FD0546204601F0CA
:1017600075FD294601F078FC00F058FE074901F0AC
:101770000BFC0146064801F06FFCBDE870400549CE
:1017800001F04EBE000048C2000034439D62354166
:10179000004053453393884370B5054601F110006E
:1017A0000C46C0B200F058F9284600F055F904F193
:1017B0002000C0B200F050F90C2000F04DF904F107
:1017C0004000C0B200F048F9002000F045F904F1F3
:1017D0003800C0B200F040F9FF2000F03DF9FF20D2
:1017E00000F03AF91834E0B200F036F9BDE8704084
:1017F000FF2000F031B9000000B5012000F0FAF937
:101800000B4A002010604FF4F07000F0F3F9012053
:101810001060462000F0EEF952F8800C30B1002242
:101820004FF4CD7000F0E6F9104600BD0122F7E755
:10183000B48121420F4A00B503460020C2F8B4012A
:10184000062000F0D7F9C2F8B431092000F0D2F92F
:10185000D2F8340108B1012300E000232D2000F06C
:10186000C9F90120C2F8B4010A2000F0C3F91846F2
:1018700000BD00000080214200B5012000F0BAF94F
:101880000B4A002010604FF4F07000F0B3F9012013
:101890001060462000F0AEF952F8800C30B1002202
:1018A0004FF4CD7000F0A6F9104600BD0122F7E715
:1018B000A00121420F4A00B503460020C2F8A00152
:1018C000062000F097F9C2F8A031092000F092F943
:1018D000D2F8200108B1012300E000232D2000F000
:1018E00089F90120C2F8A0010A2000F083F9184606
:1018F00000BD00000000214200B5012000F07AF98F
:101900000B4A002010604FF4F07000F073F90120D2
:101910001060462000F06EF952F8800C30B10022C1
:101920004FF4CD7000F066F9104600BD0122F7E7D4
:10193000AC0121420F4A00B503460020C2F8AC01B9
:10194000062000F057F9C2F8AC31092000F052F936
:10195000D2F82C0108B1012300E000232D2000F073
:1019600049F90120C2F8AC010A2000F043F91846F9
:1019700000BD00000000214200B5012000F03AF94E
:101980000B4A002010604FF4F07000F033F9012092
:101990001060462000F02EF952F8800C30B1002281
:1019A0004FF4CD7000F026F9104600BD0122F7E794
:1019B000BC0121420F4A00B503460020C2F8BC0119
:1019C000062000F017F9C2F8BC31092000F012F926
:1019D000D2F83C0108B1012300E000232D2000F0E3
:1019E00009F90120C2F8BC010A2000F003F91846E9
:1019F00000BD0000000021421148816941F00C0146
:101A00008161816941F20102114381610D484168A0
:101A100021F0E06141F000714160416841F0010155
:101A2000416009490868094A1040094A10430860A2
:101A3000084840F27F31018000218180704700001A
:101A40000010024000000140000C0140FF0F00FFA9
:101A500000B0B40000300140034988810889C00704
:101A6000FCD08889C0B2704700300140F0B5194AF7
:101A7000002401250746C2F89C5108232646012070
:101A800000F0B8F8C2F89851012000F0B3F86006F1
:101A9000D2F81C11000E11B140F0010401E000F079
:101AA000FE04C2F898615B1E13F0FF03E7D16FB12B
:101AB000C2F89C51012000F09DF8C2F89851012015
:101AC00000F098F8C2F898612046F0BDC2F89C6119
:101AD000F0E700000080214270B508240025164A76
:101AE00006460123300602D5C2F89C3101E0C2F857
:101AF0009C517006060E012000F07CF8C2F8983167
:101B0000012000F077F8C2F89851641E14F0FF0429
:101B1000E8D1C2F89C31012000F06CF8C2F898318D
:101B2000012000F067F8D2F81C01C2F8985108B102
:101B3000002070BD012070BD0080214230B50346F9
:101B400018480C46816941F0080181611648016816
:101B500021F07F4141F0EE410160144A0120C2F8BA
:101B60009C01C2F898010A2000F044F8D2F81C0148
:101B7000002815D0D2F81801002811D00025C2F88D
:101B80009C51012000F036F8C2F898512CB143F076
:101B90000100BDE83040FFF79FBF03F0FE00F8E70B
:101BA00030BD000000100240000C014000802142C6
:101BB000084A00B500205060012000F01BF8012306
:101BC0001360184600F016F8536001205DF804EB2E
:101BD00000F010B89881214200B5024640F2E73388
:101BE00002E0184600F006F81000A2F1010292B2DD
:101BF000F7D100BD13E000BF00BF00BF00BF00BFB2
:101C000000BF00BF00BF00BF00BF00BF00BF00BFDC
:101C100000BF00BF00BF00BF00BF00BF00BF401E2D
:101C2000E9D2704770B5064D00242878012802D00B
:101C30000624204670BD2869804700202870F8E7F8
:101C40000000002070B50C460988002505292FD119
:101C5000417840F2CF760A0281781143C278491C5C
:101C60001302027989B21A43531EB34220D20023D1
:101C70002380012300F8013B2688761C2680560726
:101C800003D003EBD203DEB201E0C2F3C70600F8D3
:101C9000016B23885B1C2380002300F0C7FA18B176
:101CA00000F0CCFC054604E020883044208000E0B1
:101CB0000325284670BD70B50C4609880025052906
:101CC0002FD1417840F2CF760A0281781143C27851
:101CD000491C1302027989B21A43531EB34220D21F
:101CE00000232380022300F8013B23885B1C238010
:101CF000530704D0012303EBD203DEB201E0C2F3A9
:101D0000C70600F8016B23885B1C238000F0C8FA2B
:101D100018B100F093FC054604E020883044208090
:101D200000E00325284670BD70B50C4609880026E2
:101D3000052924D1417805790A0281781143491C8B
:101D40006A1E89B27C2A1AD80022228003220270DD
:101D500022880023521C22806A0042702288801C44
:101D6000521C22802A4600F0C1FA18B100F066FC2D
:101D7000064605E0208800EB4500208000E00326B1
:101D8000304670BD70B50C4609880026052926D15D
:101D9000417805790A0281781143C278491C45EAE5
:101DA00002256A1E89B27C2A19D2002222800422CE
:101DB00002702288521C22806A0042702288801C95
:101DC000521C22802A4600F0E3FA18B100F036FCDB
:101DD000064605E0208800EB4500208000E0032651
:101DE000304670BD2DE9F0410446088800270D46B5
:101DF0000A2841D3607826790102A078227A084324
:101E0000401C1FFA80F8E07846EA00266079731ECD
:101E10000102A0790843401C81B2E0797C2B42EAA0
:101E20000022607A27D832B3792A24D8B0EB420F47
:101E300021D1012304F10A0000F058FA90B90021E1
:101E40002980172121702988A01C491C2980710034
:101E5000617029880023491C29803246414600F0E0
:101E600045FA18B100F0EAFB074605E0288800EBC8
:101E70004600288000E003273846BDE8F0810000D6
:101E800070B50C4600212180112101702188094D77
:101E9000491C21802A8842702188801C491C21808D
:101EA0000549FEF7D1F920882988084420800020C0
:101EB00070BD0000AC0000203001002038B509885A
:101EC000002405290BD141780A0281781143491C6D
:101ED000027989B21AB9C278FF2A03D012B1032459
:101EE000204638BD00228DF80120C078FF280CD094
:101EF0008DF8002001231A46684600F097F9002863
:101F0000EED000F09BFB0446EAE701208DF80000CC
:101F1000F0E710B509880024052902D003242046E3
:101F200010BD417801230A028178C01C1143491C6D
:101F300089B21A4600F0DAF90028F0D000F07EFBF2
:101F40000446ECE72DE9F0410D46098800240529F7
:101F500026D9417843790A0281781143491C8EB20F
:101F6000C178027942EA0122510704D0012101EB34
:101F7000D201C9B201E0C2F3C701571EB7F5F66F2F
:101F80000ED299420CD101233146801D00F04EF94A
:101F900018B100F053FB044603E00520288000E060
:101FA00003242046BDE8F08170B50D460988002461
:101FB00006291DD341780A0281781143C278491C51
:101FC0001302027989B21A434379561E772E0FD82D
:101FD0005606360E9E420BD10123801D00F086F975
:101FE00018B100F02BFB044603E00520288000E038
:101FF0000324204670BD00002DE9F0411D46069BDC
:102000001746064629B1F72903D8134C0846217113
:102010000EB102251BE0114921611149616111498D
:10202000E1601149A1610021E1611049216210497B
:1020300061621049A1622A46394600F075F8050030
:1020400005D100F083FB28B166710120207028467D
:10205000BDE8F0810325FAE700000020FD2100081B
:1020600019220008A521000861210008992800080C
:1020700021290008F928000838B52A4C207808B131
:10208000062038BD684600F053FBE8B39DF8000019
:10209000D0B3012802D0022842D10FE0214AA3691F
:1020A000921D911CC81F984770BB607821798842A7
:1020B00000D048BB022000F051FB31E0A0680121B4
:1020C000184B0278A270E17000212C3313F83150C4
:1020D00065B1954207D103EBC1014A681149891DD9
:1020E0009047E07002E0491C1029EFDB607858B19E
:1020F000E07880B10021E180A17841F08002A16800
:102100000A70E288521C00E00AE092B2E280885431
:10211000E088401CE080D4E90213E28820799847E7
:10212000002038BD0000002070B515460846002488
:102130000822294600F028FB60B1B5F5964F01D979
:10214000232003E005496800B1FBF0F080B200F005
:102150007BFB00B90324204670BD0000A07F170060
:102160002DE9F0410D4C07461646A088884600250B
:10217000042804D3A1880A4800F074FA18B1052590
:102180002846BDE8F081064800783870A088C01E57
:1021900030800348401CC8F80000F1E7B000002080
:1021A0005001002070B5134C0346002560780128CB
:1021B00002D00525284670BD491E0126A1600846AB
:1021C00066800B70618811446180618800F04AFA72
:1021D0006188094A5318491C61801870010A608897
:1021E0000244401C6080117026700121002000F024
:1021F00051FADFE7B000002050010020054910B57A
:10220000002048700146012000F044FABDE810406B
:1022100000F076BAB000002010B50021084600F0AA
:1022200039FABDE8104000F053BA00002DE9F04142
:102230000546002714B261B38818292829D8491EF9
:102240008EB293B1012B25D120E0082C01DD0820AE
:1022500000E02046C2B23146104800F089FB083C3D
:10226000083605F8010B24B2B6B2002CEDDC11E003
:1022700015F8013B082C01DD082000E02046C2B221
:102280003146064800F085FB083C24B2002CEFDC08
:1022900000E001273846BDE8F0810000C3000020BF
:1022A0002DE9F0410646002714B2C1B1881829284B
:1022B00015D8491E8DB20FE0082C01DD082000E082
:1022C0002046C2B22946084800F052FB083C0835B7
:1022D00006F8010B24B2ADB2002CEDDC00E00127C2
:1022E0003846BDE8F0810000BE00002070B5002433
:1022F000E9B38D18292D26D8491E244D09B27BB18A
:10230000012B40D11CE000BF35F811301B0A0370CF
:1023100015F811304370491C801C521E09B292B24C
:10232000002AF1D12FE003781B0225F811304678FE
:10233000801C334325F81130491C521E09B292B259
:10234000002AF0D11FE0B1F57A7F1BD940F2D17697
:10235000B54217D84FF6FF75A1F2E93105EA4202FE
:1023600009B205EA41051BB1012B0CD105E009E0DA
:1023700001462846FEF704F905E001462846FEF727
:102380002BF900E00124204670BD0000A0020020CF
:1023900030B50023A9B18C18292C12D8491E09B2D6
:1023A000094C0BE034F811502D0A057014F8115047
:1023B0004570491C801C521E09B292B2002AF1D10C
:1023C00000E00123184630BD50020020FEF75CB942
:1023D000014880897047000040030020064810B57E
:1023E000408900F0FAFB6FF0030201F0C0F8BDE88D
:1023F000104000F0E3BA00005002002010B50220A7
:10240000FEF746FEBDE81040FFF798B910B503206F
:10241000FEF73EFEBDE81040FFF790B92DE9F04110
:102420000026A0F50001B1F1FE4F22D34FF07F420C
:10243000B2EB400F04D2BDE8F041012101F0C5B874
:10244000B0F1FF4F08BFBDE8F081B0F1004F08D9EF
:102450000120FDF746FFBDE8F0410021084600F0ED
:10246000FBBD30F000415ED06FF01606172101F081
:10247000ACF800F500226FF07E0101EBE251C2F3EF
:10248000025477184FF07E52A0EBC15602EB045570
:1024900057EA040050D02946304600F075FD8046CA
:1024A0002946304600F0BCFF414600F0D5FD054608
:1024B000014600F0DFFE8046334900F0DBFE334981
:1024C00000F062FD06464146284600F0D3FE314644
:1024D00000F0D0FE0646384600F0A0FE07462C4924
:1024E00000F0C8FE2B49794451F8241000F04CFD4F
:1024F000314600F049FD06460121284601F065F805
:10250000314600F041FD05463846234900F0B2FE51
:102510002249794451F8241000F036FD2946BDE8DF
:10252000F04100F031BD0220FDF7DBFEBDE8F041D7
:1025300000211B4800F090BD4FF07E51304600F066
:102540006FFF0546174900F095FE174900F01CFD86
:10255000294600F08FFE154900F016FD294600F0CF
:1025600089FE6FF0824100F00FFD044629460846BF
:1025700000F080FE214600F07DFE01462846BDE8C1
:10258000F04100F001BD000066F1CC3EAAAA2A3F4E
:10259000F4FD0538B61400000070313F6A140000E5
:1025A000000080BF21ED423E0A1180BEC1ABAA3EB1
:1025B00008B5FDF70BFF00201C4A1D4D014600BF6A
:1025C00022F8101025F81010401C80B22828F7D3EC
:1025D000184A194C002011542154401C80B205287F
:1025E000F9D36846FDF768FF6846FDF76BFF18B141
:1025F000607840F0010060706846FDF769FF68464A
:10260000FDF76CFF18B1207840F020002070FEF735
:1026100005FBFEF749FB0120FEF784FB2888401CE0
:102620002880FFF70BF8FFF749F8F7E7A002002032
:1026300050020020C3000020BE000020002804D06B
:10264000012803D0072803D00420704702207047D8
:102650000620704700F028BB014A50601170704797
:102660004003002070B50A4DFF231A4605F5807619
:1026700006E000BF10F8014B54402A5D5A40335D1C
:102680000C00A1F1010189B2F4D142EA032070BD2E
:102690004636000810B50D4C0028208802D040F0C6
:1026A000200001E020F02000208029B1FEF734FB5B
:1026B000208840F0800006E0208820F08000208004
:1026C000208840F04000208010BD00000C38014000
:1026D0000A48018821F001010180084900202431C5
:1026E000088006480C30018821F001010180001D9E
:1026F000018821F0010101807047000000080040BE
:102700000A48018821F001010180001F018841F081
:102710000101018005490020143108800348103868
:10272000018841F00101018070470000100800405D
:102730000549024600204B78002B04D00878107021
:102740000020487001207047BC0000200249002092
:102750004870012070470000BC000020044901229D
:102760004A7008700349100708601046704700005F
:10277000BC00002004ED00E002490988017001203E
:10278000704700000438014070B528480E461C46CA
:102790008169154641F480418161816941F00401FC
:1027A00081612348016821F47F6141F49E610160E9
:1027B000FEF7B0FA1F4800210180021D1180121D92
:1027C00011800C2101801C49021F0968B1FBF6F140
:1027D0001180072D02D0082D08D103E0018821F4D3
:1027E000805102E0018841F48051018024B1012C24
:1027F00006D0022C09D111E0018821F4806103E0A8
:10280000018841F400710CE00180018841F400511D
:1028100001802520FEF7DCFA012070BD018821F43B
:1028200000710180018841F48061EDE700100240F1
:10283000040801400C380140CC0000200149088008
:102840000120704704380140104910B5CA6942F0B0
:102850000402CA610E4900220A800E4944F6206330
:102860000968B1FBF3F10A4B491E28331980191D81
:102870000880074901201431088005480C30028087
:102880001E20FEF7A5FA012010BD00000010024036
:1028900000080040CC00002038B500246846FFF74F
:1028A0006BFF1349487830B1124A012807D002283B
:1028B00010D0032801D1FFF723FF204638BD0020A8
:1028C00088809DF8003088880244401C88801370FE
:1028D00002200BE08888FF2807D89DF80030888800
:1028E0000244401C88801370E5E703204870E2E74B
:1028F000B00000205001002070B5084D0024687819
:1029000010B1022803D10120FFF728FF0446FFF78A
:10291000DFFE01206870204670BD0000B00000207E
:1029200070B5124C0025207810B101281CD104E0AC
:1029300000210120FFF7AEFE16E0608850B1A068CC
:102940000078FFF77BFFA068401CA0606088401EF5
:10295000608009E00320FFF701FF05460021012008
:10296000FFF798FE00202070284670BDB0000020C0
:1029700010B5CB085C4201EBC40401219140C25C5C
:102980001844491E407842EA0020E0400840C0B2A6
:1029900010BD70B5CC08654201EBC505AB40012107
:1029A0009140491EA9400519025D6E7842EA06224F
:1029B0008A431A430255100A687070BD21F0004224
:1029C000A2F16052B2F5801F01F0004328BFD2F19E
:1029D0007F6C0BD95FEA001C43EAC20242EB5070E5
:1029E00018BF704728BF20F001007047B2F5801F64
:1029F000BCBF184670474FEA410C1CF5001F02D2BD
:102A0000084600F0FEBC70B500F0FAF8000000893E
:102A1000FFF7F6BF4FF00040A0F5800070470000C0
:102A200010B591EA030F48BF83F0004300F19E8187
:102A3000841A71EB030C05D2121943EB0C03001B33
:102A400061EB0C01DFF824E14FEA1154A4EB135CB5
:102A50001EEA430F18BF9EEA445F73D023EA0E03B9
:102A6000DCF1200E21EA045143F4801332D322FA20
:102A70000CFE10EB0E0023FA0CFE41EB0E01CCF124
:102A8000200E03FA0EFE10EB0E0051F10001B1F51D
:102A9000801FCCF1200E32D201EB045112FA0EF25B
:102AA000BDE8104058BF7047401C38BF5FEA420283
:102AB00018BF7047002814BF20F0010041F1000149
:102AC0004FEA410313F5001F38BF7047A1F1C04121
:102AD00000F0E4B8012A43EB0302ACF1200CDCF176
:102AE0001F0E32BF4FF0000E23FA0CF310EB030061
:102AF00041EB0451B4EB115FD0D0A1EB045101F5CF
:102B0000801149085FEA300001EB04510ED350F107
:102B1000000038BF12FA0EFE08D1BDE81040C9E728
:102B2000401C38BF5FEA4202CAD1C3E7BDE810408B
:102B30004FEA410313F5001F38BF7047A1F1C041B0
:102B400000F0ACB89EEA445F08D011EA5E0FBDE821
:102B5000104004BF01F0004100207047BDE8104064
:102B600070B500F04DF800BF64FBBE3E0000E0FF12
:102B700002494FF0000000F0C8BC00BF0000F87F21
:102B80004FEA1153A3F58063D3F11E03A8BFD3F11D
:102B9000200C08DB4FF0004242EAC12252EA5052B8
:102BA00032FA03F0704709420BD4102BC4BF002047
:102BB000704703F5787CBCF1FF3F05D04FF0FF3044
:102BC00070474FF00000704770B500F019F800BF73
:102BD0004992248000207047F0E7B0FA80F310FAA1
:102BE00003F10AD0C3F11D0303F580634FEA41509E
:102BF0004FEA035202EBD12170474FF000007047BB
:102C00000EF1020E2EF0030E5EF8046B364205D470
:102C1000012A43EB030515F5001F12D8012841EBEB
:102C2000010C1CF5001F0CD80ED14FEAD17C15F514
:102C3000001F0CEB4C0C0CF1020C08BF4CEBD37CCE
:102C400004E04FF0080C01E04FEAD37C0CEB4C059C
:102C500026FA05F606F00706B6F1040C06D20EEBCE
:102C6000860CBDE870404CF0010C6047DFE80CF0CA
:102C7000090B02024FF000414FF00000A1F50021C6
:102C800070BD19461046012851EB010418BFD4F558
:102C9000001484BF002001F0004170BD0808A0F5B9
:102CA00000114FEA310170475FEA410C5FEA5C5C5A
:102CB000ACF580635B1C39D4D3F1340240F345801A
:102CC000B2F1200314DA4FF0010C0CFA02FCACF163
:102CD00001030340B3EB5C0220EA030008BF10EAE3
:102CE0000C0F98BF704710EB0C0041F100017047CA
:102CF0000AD0C3F1200201FA02FC012821FA03F1F3
:102D000001FA03F14CF100004FF0010C0CFA03FC46
:102D1000ACF10103B0F1004F21EA030108BF11EA51
:102D20000C0F4FF0000088BF61447047B3F1FF3FC4
:102D300028BF50EAC12C01F000414FF0000084BFD1
:102D400041F07C5141F470017047B3F5806FB8BF1A
:102D5000704770B5FFF754FF40DBB6BE10B591EA7F
:102D6000030F48BF83F000433FF562AE841A71EB56
:102D7000030C07D212198CF0004C43EB0C03001B20
:102D800061EB0C01DFF8A4E14FEA1154A4EB135CF2
:102D90001EEA430F18BF9EEA445F00F0B08023EAAA
:102DA0006E03524221EA0451C3EB6E0338BF5B1E2F
:102DB000DCF1200E25D322FA0CFE10EB0E0043FAB4
:102DC0000CFE41EB0E01CCF1200E03FA0EFE10EBCF
:102DD0000E0051F10001CCF1200E29D412FA0EF2AE
:102DE00001EB0451BDE8104058BF7047401C1CBFA8
:102DF000B2F1004F704700280CBF491C20F00100C1
:102E0000704712EB020E43EB030218BF4FF0010EA6
:102E10004EEA4202ACF1200CDCF11E0E54D943FA0A
:102E20000CFE10EB0E0051F1FF31CCF11E0ED5D58A
:102E30000EF1010E12FA0EFE404141EB010101EBD1
:102E4000445C5FEA5C5C10D910EBDE7001EB04516E
:102E500038BFBEF1004FBDE8104018BF70470028D2
:102E60000CBF491C20F00100704730D24FEAD42C2F
:102E700011F5001124F400641BD0B1FA81F20B3A71
:102E8000A41AA41ED2F12003914030FA03F319438F
:102E9000904001EBCC71002C01EB0451BDE81040D7
:102EA000A8BF704701F1C0414FF0000001F00041A0
:102EB0007047B0FA80F310FA03F100D110BDE41AA4
:102EC000173C4805C90AE4E701EB045110BD49105D
:102ED00001EB0451BDE810404FEA300002E04FF032
:102EE000000170474A0008BF0042F8D0B2F5001F49
:102EF00028BF704701F000414FF0000070479EEA84
:102F0000445F07D011EA5E0FBDE8104004BF002106
:102F100000207047BDE8104070B5FFF771FE00BF9C
:102F200040DFF63E83F00041104670470000E0FFAE
:102F300043004FEAD30C4FEA3C0C43401FBF40070D
:102F40000CF1605113F0FE4F70471CF0006F03D17D
:102F500000200CF0004170470CF0004343EA507031
:102F600010B540EACC0000F006FA00BF0000009265
:102F70004FEA0001FFF792BE4FF000414FF0000012
:102F8000A1F500217047000090EA010F48BF81F0D1
:102F9000004100F14C82421A3CBF801A89184FEA66
:102FA000D0524FF07F4C1CEA410FA2EBD15318BF17
:102FB0009CEA026F00F03B804FF0004C4CEA00208E
:102FC0004CEA012121FA03FC10EB0C0C1ED202F199
:102FD000FF325FEA1C2040EBC25038BF70471CF044
:102FE0007F0F4FEA400C18BFBCF17F4F38BF7047CE
:102FF000C3F12003994008BF20F00100BCF17F4FCE
:1030000038BF7047A0F1C04000F0FBB94FEA3C0068
:10301000000A40EBC25028BF1CF0FF0F4FEA400CE3
:10302000E6D018BFBCF17F4F38BF7047EAE79CEA93
:10303000026F05D010EA5C0F08BF00F00040704737
:1030400010B500F098F900BF64FBBE3E014800F0E7
:103050005CBA00BF0000C07F4FF47F0C1CEAD012A6
:103060001EBF1CEAD11392EA0C0F93EA0C0F00F07A
:10307000858090EA010F48BF42F4807240F4000C52
:1030800041F400002CF07F4120F07F4000B58142E8
:10309000A2EB03020FF2081CACEB504EC0F1000093
:1030A0009EF800E04FEA4E0E00FB0EFC38BF4900D0
:1030B0004FEA2C1C02F5FA020CFB0EF34FEACE1E6F
:1030C0004FEA112C4FEAC1210EEB635E42EB224224
:1030D0000EFB0CFC4FEA1C5300FB03114FEA112CB2
:1030E0004FEA01310EFB0CFC4FEADC4C00FB0C11EB
:1030F000C14228BF09184CEB03335DF804EB10EB19
:10310000410143EBC250B2F57C0F38BF704729D55F
:1031100012F0F00F1CBF00F1C04000F000407047FB
:10312000008182838485868788898B8C8D8E8F91A0
:103130009293959697999A9C9D9FA0A2A3A5A7A8C4
:10314000AAACAEB0B2B3B5B7B9BCBEC0C2C5C7C9F0
:10315000CCCED1D4D7D9DCDFE2E6E9ECF0F3F7FA54
:10316000FE0000004FEA400C0CF1807CBCF17E4F69
:1031700028BF7047B0F1C04000F043B990EA010F9A
:103180000CEAD11348BF42F48072624538BF6345F0
:1031900007D213F47F0F16D080EA010000F0004040
:1031A000704710B500F0E7F8097EFC3E00F005B866
:1031B00080EA010000F00040704780EA010000F062
:1031C000004000F01EB912F47F0F04BF02487047A0
:1031D00080EA010000F015B90000C07FC10DD1F1F7
:1031E0009E0206DB4FEA002343F0004323FA02F07D
:1031F0007047004207D54FEA4001B1F1FE4F02D2BD
:103200004FF00000704710B500F0B5F849922480E7
:10321000002070476FEA20007047000010F0004166
:1032200048BF4042B0FA80F310FA03F2C3F19D03A5
:103230000BD051EAC35101EB1220530638BF70473F
:1032400000F1010008BF20F001007047B0FA80F3E0
:1032500010FA03F2C3F19D030AD0D90501EB122045
:10326000530638BF704700F1010008BF20F001008D
:10327000704700004FF47F0C1CEAD0121EBF1CEAFE
:10328000D11392EA0C0F93EA0C0F00F0478090EAFA
:10329000010F48BF42F480724FF0004C4CEA00200E
:1032A0004CEA012102EB0302A0FB0113A2F500028C
:1032B000002918BF43F001035B0028BF4FEA330326
:1032C00042EB22425FEA132C4CEBC2502EBFBCEB08
:1032D000436FB2F57C0F70474FEA036CBCF1004FAF
:1032E00008BF20F00100B2F57C0F38BF70470BD546
:1032F00082F0FF0212F5803FC8BF704700F1C04066
:10330000D8BF00F00040704700F5000C5FEA4C0C9D
:1033100048BF7047B0F1C04000F073B890EA010FA9
:103320000CEAD11348BF42F48072624538BF63454E
:1033300004D280EA010000F00040704710B500F0B0
:103340001AF800BF8900013E00F007B800F009B884
:103350005FEA410C5FEA1C6C08D080EA010000F0D3
:1033600050B85FEA400C5FEA1C6CF6D14FF00040A9
:10337000A0F5800070470EF1020E2EF0030E5EF8ED
:10338000044B244204D44FEA4102B2F17F4F11D8DA
:103390004FEA4003B3F17F4F0CD80ED14FEAD07CF7
:1033A000B2F17F4F0CEB4C0C0CF1020C08BF4CEB54
:1033B000D17C04E04FF0080C01E04FEAD17C0CEB2B
:1033C0004C0324FA03F404F00704B4F1040C06D20D
:1033D0000EEB840CBDE810404CF0010C6047DFE8B8
:1033E0000CF0070802024FF00040A0F5800010BD6D
:1033F0000846420018BFD2F1807288BF00F000403A
:1034000010BDFF2141EAD050C005704780F0004058
:1034100090EA010F7FF5BFAD81F0004100F007B8E1
:1034200090EA010F48BF81F000413FF5B4AD421A68
:1034300004D882F00042A0EB020011444FEAD052BF
:103440004FF07F4C1CEA410FA2EBD15318BF9CEA0E
:10345000026F4AD04FF0004C4CEA00204CEA0121A8
:1034600021FA03FCB0EB0C0C0FD412F0FE0F36D097
:103470005FEA4C001DD5001240EBC25038BF7047C8
:103480001CF03F0F18BF70470BE0A2F101025FEA8A
:103490001C2040EBC25038BF70471CF07F0F18BF94
:1034A0007047C3F12003994014BF401E20F0010073
:1034B000704780084FEA122308BF7047B0FA80FCBB
:1034C000A2EB0C02CCF1280C60FA0CF093EA122F5C
:1034D00004BF00EBC25070474FEAC3707047130A35
:1034E0005FEADC1008BF7047F6E79CEA026F04D081
:1034F00010EA5C0F08BF0020704710B5FFF73BFFD4
:1035000040DFF63E81F0004070470CF00F03092BBE
:1035100008BF082000F07F800A2B0BD0082B18BFB3
:10352000704708BF1CF0400F0AD04FF000004FF06A
:10353000000170471CF0400F18BF4FF0004070476B
:103540001CF0100F08D020F0704300F07F4242EAD8
:10355000D3014FEA4370704700F0604021F07F4292
:1035600042EA000201F07F4040EA727070474FF07B
:10357000FF0C4CF4E06C1CEA11531CBF9CEA030CDA
:103580009445C2BFDA4201EB02517047002B0DD0C7
:10359000BCF1000F0FD0002A01F00041A4BF41F0A0
:1035A000E04141F07F614FF00000704701F00041C1
:1035B0004FF00000704750EA01334FF09B0C18BFEA
:1035C0004CF0806C7FF4D4AA70474FF0FF0212EAEF
:1035D000D0521CBF92F0FF038B42C2BFD14200EB1E
:1035E000C1507047002A0AD0002B0BD0002900F0F0
:1035F0000040A4BF40F0FE4040F40000704700F0DF
:103600000040704743024FF00B0C18BF4CF0806C29
:103610007FF41CAD70471CF4801F11D01CF4E02F08
:1036200003D06FEACC31490070474FF04050EFF3C0
:10363000008222F0704242EA000282F30088704762
:103640004FF00000704700C1814001C0804101C0BF
:10365000804100C1814001C0804100C1814000C162
:10366000814001C0804101C0804100C1814000C152
:10367000814001C0804100C1814001C0804101C042
:10368000804100C1814001C0804100C1814000C132
:10369000814001C0804100C1814001C0804101C022
:1036A000804100C1814000C1814001C0804101C012
:1036B000804100C1814001C0804100C1814000C102
:1036C000814001C0804101C0804100C1814000C1F2
:1036D000814001C0804100C1814001C0804101C0E2
:1036E000804100C1814000C1814001C0804101C0D2
:1036F000804100C1814001C0804100C1814000C1C2
:10370000814001C0804100C1814001C0804101C0B1
:10371000804100C1814001C0804100C1814000C1A1
:10372000814001C0804101C0804100C1814000C191
:10373000814001C0804100C1814001C0804101C081
:10374000804100C1814000C0C101C30302C2C6065E
:1037500007C705C5C404CC0C0DCD0FCFCE0E0ACAC9
:10376000CB0BC90908C8D81819D91BDBDA1A1EDE19
:10377000DF1FDD1D1CDC14D4D515D71716D6D212C9
:1037800013D311D1D010F03031F133F3F23236F6D9
:10379000F737F53534F43CFCFD3DFF3F3EFEFA3A89
:1037A0003BFB39F9F83828E8E929EB2B2AEAEE2E19
:1037B0002FEF2DEDEC2CE42425E527E7E62622E289
:1037C000E323E12120E0A06061A163A3A26266A6D9
:1037D000A767A56564A46CACAD6DAF6F6EAEAA6A49
:1037E0006BAB69A9A86878B8B979BB7B7ABABE7E99
:1037F0007FBF7DBDBC7CB47475B577B7B67672B249
:10380000B373B17170B050909151935352929656D8
:103810005797559594549C5C5D9D5F9F9E5E5A9A08
:103820009B5B99595898884849894B8B8A4A4E8E98
:103830008F4F8D4D4C8C4484854587474686824208
:103840004383418180402A222A222A222A222A22B4
:10385000090E0008490E0008550E0008610E000808
:103860009D0E0008A90E0008B50E0008F50E000810
:10387000010F00080D0F00084D0F0008590F000838
:10388000005EBCE2613FDD83C29C7E20A3FD1F4140
:103890009DC3217FFCA2401E5F01E3BD3E6082DC30
:1038A000237D9FC1421CFEA0E1BF5D0380DE3C6220
:1038B000BEE0025CDF81633D7C22C09E1D43A1FF10
:1038C0004618FAA427799BC584DA3866E5BB590700
:1038D000DB856739BAE406581947A5FB7826C49AF0
:1038E000653BD987045AB8E6A7F91B45C6987A24E0
:1038F000F8A6441A99C7257B3A6486D85B05E7B9D0
:103900008CD2306EEDB3510F4E10F2AC2F7193CDBF
:10391000114FADF3702ECC92D38D6F31B2EC0E50AF
:10392000AFF1134DCE90722C6D33D18F0C52B0EE9F
:10393000326C8ED0530DEFB1F0AE4C1291CF2D738F
:10394000CA947628ABF517490856B4EA6937D58B7F
:103950005709EBB536688AD495CB2977F4AA48166F
:10396000E9B7550B88D6346A2B7597C94A14F6A85F
:10397000742AC896154BA9F7B6E80A54D7896B354F
:10398000000000000030F13D0070643E0000A33EE6
:103990000090CF3E0090F83E00400F3F00E0203FF7
:1039A0000000000015B78337CDE37B380EE1C53842
:1039B00060F69138AF5F0F38E1BC3E3823F44739E9
:1039C000E039000800000020300100005C01000820
:1039D000343A000830010020E00A00009801000895
:1039E000022C02421146811E00080446851D000873
:1039F0000346291D00081046A91F00080646131F8C
:103A000000081746E51D00080146451C000805464C
:103A1000BD1E00080F46451F0008020552B71C00D6
:103A2000080411366E010D4501020304060708095A
:043A3000000101018F
:0400000508000121CD
:00000001FF
